:02000002D0002C
:1040000000400D00E87A0D00000006000D000501DB
:084010000401E80500000000B6
:04401800BC750D0066
:1040200009480A49884208B505D0094A824202D0A7
:10403000121A03F059FA0748074A0021121A03F02E
:104040005EFA014808BD00BF14E20320547A0D0057
:1040500080E2032080E20320F0E7032070B501F046
:104060008FF8074C074BE41AA40800251E46A5420A
:1040700004D056F8253098470135F8E770BD00BFE9
:10408000447A0D000C7A0D0000F0CCBA08B500F0AF
:104090002FFBBDE8084001F035B800F0E5BD00F0A9
:1040A000EBBD00F0E9BD0078B0FA80F04009704740
:1040B000012303707047000038B50D49054600F034
:1040C000EDFE044628B10121072001F07AFF01200E
:1040D00038BD0849284600F0E1FE28B121460720F6
:1040E00001F06FFF204638BD4FF0FF3038BD00BFF4
:1040F000E8750D00EB750D0010B50446006808B1B9
:1041000000F0BAFD204610BD0368C9B29B6818478D
:1041100070B5064614460D4601F09EFF314601F08B
:104120009DFD01F01DFC294900F014FF01F018FC71
:10413000274900F022FF01F08FFF2946FFF7E4FF37
:1041400001F00EFC2B46234A002100F040FF01F055
:1041500007FC1F4900F011FF01F07EFF2146FFF729
:10416000D3FF01F0FDFB23461B4A1C4C002100F04D
:104170002EFF01F0F5FB164900F0FFFE01F06CFF89
:10418000012101F06EFD206028B901F0E9FB14491E
:1041900000F0E0FE10E001F0E3FB124900F0DAFE6F
:1041A00001F0DEFB0A4900F0E8FE01F0D9FB2368CC
:1041B0000D4A002100F00BFF01F0D2FB044900F092
:1041C000DCFEC820BDE8704000F04EBFEF750D006A
:1041D000A4770D0005760D001D760D0038E3032051
:1041E0002F760D0048760D005D760D002DE9F04F1D
:1041F0002DED028B054683B09A460C46934601F09E
:104200002BFF294601F02AFD01F026FF3B21FFF795
:104210007BFF01F021FF002101F023FD01F01CFFD5
:10422000E9B20E22012301F003FD01F015FF03683E
:104230005B699847804601F00FFF03685B69984708
:1042400040EA082801F008FF03685B6998470746C1
:1042500001F002FF03685B69984740EA072701F015
:10426000FBFE03685B699847064601F0F5FE0368AC
:104270005B69984740EA062601F0EEFE03685B6939
:104280009847054601F0E8FE03685B69984740EAF5
:10429000052308EE103A01F0DFFE03685B699847DA
:1042A000054601F0D9FE03685B69984740EA052599
:1042B00001F0D2FE03685B699847814601F0CCFEAD
:1042C00003685B69984740EA0922019201F0C4FE45
:1042D00003685B699847814601F0BEFE03685B692D
:1042E000984740EA092901F0B7FE012101F0B9FC25
:1042F000B8F5004FB4BFC8F10008C8F5803807EE24
:10430000908ADFED4C6A4C4B019A1860B7F5004F6C
:10431000B8EEE77AB4BF7F42C7F5803727EE267A3A
:10432000B6F5004F07EE907AB4BF7642C6F58036F8
:1043300084ED007AB8EEE77A07EE906A27EE267AE7
:10434000F8EEE77A84ED017A67EEA67A9FED3B7A84
:10435000C4ED027AB8EEC88AB5F5004FC8EE077A08
:10436000B4BF6D42C5F580356D42B2F5004FB4BFA4
:104370005242C2F58032B9F5004FB4BFC9F100090D
:10438000C9F5803901939FED2E7A77EE877A9FEDFC
:104390002D7ACBED007A07EE905AF8EEE77AC7EE69
:1043A000876A07EE902AF8EEE77ACAED006AC7EE50
:1043B000876A07EE909AF8EEE77ACAED016AC7EECF
:1043C000876ACAED026AD4ED017AD4ED006A94EDF1
:1043D000027A67EEA77AE6EEA67AE7EE077A17EE9C
:1043E000900A02F01FFD41EC100B01F0C9FF51ECE7
:1043F000100B03F01BF8144A14491060019B144A77
:1044000004F10C00B1EC017AD4ED007A77EE877AF2
:10441000E4EC017AB2EC017ADAED007A77EE877A91
:10442000A042EAEC017AEDD1186803B0BDEC028B32
:10443000BDE8F08F0000803838E303200000AA4375
:10444000B81E1242000003438CE30320D0750D0018
:10445000DC750D00000000002DE9F74F5E4DDDF822
:1044600030802E68DFF874A1DFF884911C46B60016
:10447000002706EB070E0AEB0E0C50F804BB574B57
:10448000CCF800B0CE44143751F804CBCEF800C0BD
:104490003C2F9E46DFF858C1EBD11168002900F08F
:1044A00082804F494F4ADFF84C914F4FDFED4F6A02
:1044B00026460023F1EE045A0EEB03000CEB030A30
:1044C00091ED007AD2ED007A14330EEB030BB0ECD1
:1044D000016A37EE067ABAEC016A584577EE867AB9
:1044E000F5D187EE256A3C2B87EEA57AA9EC016A07
:1044F000A7EC017AA6EC016AE1EC016AE2EC016A40
:10450000DAD1A06802F08EFCCDE90001606802F00B
:1045100089FC9DED001B41EC100B01F02FFF2CA33B
:10452000D3E9002351EC100B02F0D0FC02F07EFF27
:10453000C8F80000A06802F075FCCDE90001206811
:1045400002F070FC9DED001B41EC100B01F016FF1A
:104550001FA3D3E9002351EC100B02F0B7FC02F0CB
:1045600065FFC8F80400206802F05CFCCDE900019A
:10457000606802F057FC9DED001B41EC100B01F050
:10458000FDFE13A3D3E9002351EC100B02F09EFCB7
:1045900002F04CFF2B68C8F808000133042B0E4AC8
:1045A000C8BF00230EE01E4431682160296803EB78
:1045B000810003EB8103406960609B6AA360013165
:1045C00029600123136003B0BDE8F08FAFF30080D2
:1045D000E79AD56194A94C4088E30320F8E20320D0
:1045E0009CE30320E8E20320C0E203200000000077
:1045F00048E303203CE3032038B5046805467CB15A
:104600006368013B63605BB9236820469B689847F9
:10461000A368013BA3601BB923682046DB68984769
:10462000284638BD30B585B001F09AF94FF41651DF
:1046300001F08AF901F010FD01F0D8FA642000F0D1
:1046400013FD184D184C00226B216820FFF760FD08
:104650000121072001F0A4FC00232946022213486F
:1046600000F0DAFA2A681249204600F015FB2146CC
:10467000002304220F4800F0CFFA0F4B0F491B789C
:104680008DF8003022463C2302A800F013FF03A857
:10469000FFF7B2FF0A4A0B490B4800F0FBFD05B0DB
:1046A00030BD00BF84E20320A0E2032097760D0016
:1046B00094760D00A7760D00F4E20320B4760D0089
:1046C000C5760D00B9400D0069520D0037B504469E
:1046D00010EE100A0D4602F0A5FB2A46CDE90001B6
:1046E0000121204600F073FC03B030BD0000000043
:1046F0007FB5132001F07EFC07EE900AB8EEE77A52
:10470000DFED337A334B344D1860C7EE276A044629
:10471000324E16EE900A02F085FB29A3D3E900235E
:1047200002F0D4FB28A3D3E9002302F0CFFB02F070
:104730007DFE2B4B2B4918602246284600F0ACFA30
:10474000294B2A491B788DF800302A463C2302A8C1
:10475000274D284C00F0AEFE03A8FFF74DFF33466F
:104760002946254A6820FFF741FD244B244A18605A
:104770002846244D244B00943146FFF76DFE01F08E
:10478000EFF894ED000A2946FFF7A0FF01F0E8F8E2
:1047900094ED010A2946FFF799FF01F0E1F894ED45
:1047A000020A2946FFF792FF01F0DAF800F0D9FB80
:1047B000642000F059FC04B070BD00BFAFF300806E
:1047C0006666666666660A40CDCCCCCCCCCC004032
:1047D00000F07F4584E20320A0E20320CCE2032026
:1047E00084E3032094760D00F4E20320B4760D00F8
:1047F000DCE2032090E30320D8E2032038E3032027
:1048000034E30320C9760D0088E2032010B50C4B79
:104810000C4C01221A7000F02BF800232360A380B7
:10482000A371238102204FF6FF73638100F070F9BA
:104830002046054A0549BDE8104001F033BC00BFE1
:10484000F4E2032094E2032080E20320F9400D000B
:1048500008B5024B1B689B68019308BD6802030002
:1048600008B5024B1B68DB68019308BD68020300B2
:1048700008B5024B1B681B68019308BD2C0203009E
:1048800008B5024B1B685B68019308BD2C0203004E
:1048900008B5024B1B689B68019308BD2C020300FE
:1048A00008B5024B1B68DB68019308BD2C020300AE
:1048B00008B5024B1B681B69019308BD2C0203005D
:1048C00008B5024B1B681B6B019308BD2C0203004B
:1048D00008B5024B1B68DB69019308BD3002030079
:1048E00008B5024B1B681B6A019308BD3002030028
:1048F00008B5024B1B685B68019308BD18020300F2
:1049000008B5024B1B685B69019308BD18020300E0
:1049100008B5024B1B689B68019308BD4802030061
:1049200008B5024B1B681B69019308BD48020300D0
:1049300008B5024B1B685B69019308BD4802030080
:1049400008B5024B1B685B6C019308BD480203006D
:1049500008B5024B1B689B6C019308BD480203001D
:1049600008B5024B1B685B69019308BD6402030034
:1049700008B5024B1B681B68019308BD3C0203008D
:1049800008B5024B1B68DB68019308BD3C020300BD
:1049900008B5024B1B681B69019308BD3C0203006C
:1049A00008B5024B1B685B69019308BD3C0203001C
:1049B00008B5024B1B689B69019308BD3C020300CC
:1049C00008B5024B1B68DB69019308BD3C0203007C
:1049D00008B5024B1B681B6A019308BD3C0203002B
:1049E00008B5024B1B689B6A019308BD3C0203009B
:1049F00008B5024B1B68DB68019308BD2802030061
:104A000008B5024B1B689B69019308BD280203008F
:104A100008B5024B1B68DB69019308BD280203003F
:104A200008B5024B1B681B6A019308BD28020300EE
:104A300008B5024B1B685B6A019308BD280203009E
:104A400008B5024B1B689B6A019308BD280203004E
:104A500008B5024B1B68DB6A019308BD28020300FE
:104A600008B5024B1B681B6B019308BD28020300AD
:104A700008B5024B1B685B6B019308BD280203005D
:104A800008B5024B1B681B6C019308BD280203008C
:104A900008B5024B1B681B6D019308BD280203007B
:104AA00008B5024B1B681B68019308BD4C0203004C
:104AB00008B5024B1B685B68019308BD4C020300FC
:104AC00008B5024B1B681B69019308BD4C0203002B
:104AD00008B5024B1B685B69019308BD4C020300DB
:104AE00008B5024B1B689B69019308BD4C0203008B
:104AF00008B5024B1B68DB69019308BD4C0203003B
:104B000008B5024B1B681B6A019308BD4C020300E9
:104B100008B5024B1B685B68019308BD20020300C7
:104B200008B5024B1B685B69019308BD20020300B6
:104B300008B5024B1B68DB6C019308BD2002030023
:104B400008B5024B1B685B6D019308BD2002030092
:104B500008B5034B1B68D3F88830019308BD0000EB
:104B60002002030008B5034B1B68D3F8943001936F
:104B700008BD00002002030008B5024B1B685B68FB
:104B8000019308BD4002030008B5024B1B689B68F7
:104B9000019308BD4002030008B5024B1B68DB68A7
:104BA000019308BD4002030008B5024B1B681B6956
:104BB000019308BD4002030008B5024B1B685B6906
:104BC000019308BD4002030008B5024B1B689B69B6
:104BD000019308BD4002030008B5024B1B68DB6966
:104BE000019308BD4002030008B5024B1B681B6A15
:104BF000019308BD4002030008B5024B1B681B6B04
:104C0000019308BD4002030008B5024B1B685B6BB3
:104C1000019308BD4002030008B5024B1B681B68E6
:104C2000019308BD4402030008B5024B1B685B6892
:104C3000019308BD4402030008B5024B1B685B6981
:104C4000019308BD4402030008B5024B1B681B6AB0
:104C5000019308BD4402030008B5024B1B68DB6BDF
:104C6000019308BD4402030008B5024B1B681B6892
:104C7000019308BD1C02030008B5024B1B685B686A
:104C8000019308BD1C02030008B5024B1B689B681A
:104C9000019308BD1C02030008B5024B1B68DB68CA
:104CA000019308BD1C02030008B5024B1B685B6A38
:104CB000019308BD1C02030008B5024B1B68DB6AA8
:104CC000019308BD1C02030008B5024B1B681B6B57
:104CD000019308BD1C02030008B5024B1B68DB6B87
:104CE000019308BD1C020300002211464068FFF733
:104CF0007BBF002211464068FFF786BF0022406854
:104D0000FFF77ABF002281F001014068FFF764BF1E
:104D100000231A4619464068FFF756BF00231A467B
:104D200019464068FFF748BF002211464068FFF768
:104D30003BBF002211464068FFF726BF0022022138
:104D40004068FFF729BF00231A464068FFF714BFE9
:104D5000024B03225A60024A1A607047A8E30320FC
:104D6000D4760D0010B5044601700846FFF7B0FD7B
:104D700000236360204610BD0078FFF7B1BD00003E
:104D800010B5094C00204FF6FF732060A080A07181
:104D900020816381FFF7BCFE2046044A0449BDE838
:104DA000104001F07FB900BFB0E3032080E2032090
:104DB000F9400D0010B504460068FFF75DFF20467E
:104DC00010BD10B50446006808B1FFF755FF002379
:104DD0002360A360636010BD38B504460D460068CB
:104DE0000131FFF751FF10B184E82100012038BDE7
:104DF00010B50368044613B143688B4207D22046BE
:104E0000FFF7EAFF20B1A3680BB9226813700120F5
:104E100010BD70B50E46114604461546FFF7E8FF73
:104E200018B92046FFF7CDFF09E02A463146A560B4
:104E3000206802F059FB2268A3680021D154204663
:104E400070BD38B50023044603604360836003737C
:104E50000D4639B1084602F0A8FB29460246204615
:104E6000FFF7D7FF204638BD884210B50B460446F1
:104E700007D0096819B19A68FFF7CBFF01E0FFF787
:104E8000A0FF204610BD10B5002304460360436018
:104E900083600373FFF7E8FF204610BD08B5826802
:104EA0000B4612B919B9012008BD11B90368187869
:104EB00002E0006802F054FBB0FA80F0400908BD3F
:104EC00010B50446006808B1FFF742FD204610BD4A
:104ED0000B68036013B15A6801325A6070470000D2
:104EE00010B5064C002320462360FFF729FD20461D
:104EF000034A0449BDE8104001F0D4B8BCE30320E4
:104F000080E20320C14E0D00F8B506460D468F180D
:104F10000024BD420CD0336815F8011B9B68304655
:104F20009847002801DB0444F3E7002C08BF04463F
:104F30002046F8BD70B505460C46084649B102F05A
:104F400034FB2B68024621462846DB68BDE87040EA
:104F5000184770BD08B5FFF7EDFF08BD03689B68F3
:104F6000184738B50D210546FFF7F8FF0A2104461A
:104F70002846FFF7F3FF204438BD38B50546FFF754
:104F8000D9FF04462846FFF7ECFF204438BD30B572
:104F90008BB00B4600218DF82410012A98BF0A22FD
:104FA0000DF12304B3FBF2F505FB123303F0FF030D
:104FB000092B94BF30333733DBB2214604F8013973
:104FC0002B46002DEED1FFF7B5FF0BB030BD0CB472
:104FD0002DE9F04387B000AF07F13804054654F8D7
:104FE000049B3C600E4623464A461421381DFFF7B9
:104FF0005BFE132805D8391D2846FFF79BFF0446A2
:1050000013E000F1080323F00703E846ADEB030DBE
:10501000411C23464A4668463C60FFF745FE694608
:105020002846FFF787FF0446C5461EB12846FFF70E
:1050300098FF044420461C37BD46BDE8F04302B04B
:1050400070470000014B024A1A607047C0E303201A
:1050500073770D00024B1A68024B1A60704700BF4D
:1050600014E20320C4E303200021FFF759BD10B56B
:105070008368044613B1032201469847204610BDB9
:1050800010B50446FFF7F3FF204610BD13B50B46DD
:10509000044603C88DE8030093E8030084E8030096
:1050A0009DE8030083E8030002B010BD0348044AF2
:1050B00004490023836000F0F5BF00BFC8E303206C
:1050C00080E2032081500D0008B50C4B33B100F095
:1050D00047FC03681B699847002809DC084B63B14B
:1050E00000F00CFD03681B699847002803DC08BD2D
:1050F000AFF30080F2E7AFF3008008BD00000000CE
:105100000000000008B5FFF7DFFFFFF7F9FB014BD8
:10511000186008BD30E703200248034A0349121A09
:1051200002F0E2B900F4032004F40320507A0D00E9
:1051300007B5002300931A466FF07701FFF712FDC1
:1051400003B05DF804FB000007B543880A2B08D0C4
:10515000502B09D1094B1B683BB103B05DF804EB40
:105160001847FFF7E5FF06E0002300931A466FF0AB
:105170007701FFF7F7FC03B05DF804FBD8E30320E9
:1051800038B5104C104D2368AB42104B0CBF0122B8
:1051900000221A7002D0FFF7BFFF2560FFF7A8FBBF
:1051A000044602F0B5F90A4B13B12046AFF3008074
:1051B00000210748FFF750FD00210648BDE83840B0
:1051C000FFF7C6BC00F403201E1C279ADCE3032073
:1051D0000000000049510D0070470020704710B5D5
:1051E0001021044600F06CFF204610BD08B508B140
:1051F000FFF7F5FF08BD0022026010B54FF69C7264
:105200008280B1F9044084808A8002680C6804605E
:105210000A6010BD10B504460068FFF72DFD20465A
:1052200010BD38B5C468F4B12378022B03D104F162
:105230000C00FFF7EFFF656835B12846FFF717FF51
:105240001021284600F03CFFA56835B12846FFF73D
:105250000EFF1021284600F033FF20461421BDE840
:10526000384000F02DBF38BD10B588B00446684600
:10527000FFF7E7FD694604A8FFF705FE04A8A0476D
:10528000044604A8FFF796FD6846FFF793FD204605
:1052900008B010BDF0B5102485B007460E4615467F
:1052A00000212246684602F02AF90022694610468B
:1052B000ADF80040029703960195FFF7B5FC05B0E5
:1052C000F0BD13B5044691E8050000234B600B6068
:1052D0002060626001A801930093FFF78DF92046DA
:1052E00002B010BDF7B50C4602AD54F8043B45F8CA
:1052F000083D06460F4601A82146FFF7E9FD29466D
:105300003046FFF7DEFF01A8FFF776F92046FFF7EA
:1053100073F93846082100F0D3FE304603B0F0BDE3
:1053200038B500230446036010200D46FEF7B5FE95
:1053300028B1012343608360024B0360C560206095
:10534000204638BD10780D00826810B50AB900F00B
:10535000CAFEC368BDE81040184708B5006800F1F0
:105360001001FFF7F1FF08BD826810B50AB900F01F
:10537000BAFEC368BDE81040184708B5006800F1E0
:105380001001FFF7F1FF08BD38B5002383608B687B
:1053900004460D462BB102229847EB68E360AB68E8
:1053A000A360204638BD0000F0B589B004686846A7
:1053B000FFF721FF00238DF808304FF00202D4E8F8
:1053C0004F3F002B03D1C4E8412F0029F7D102D071
:1053D0008DF8083063E014F10C0503D069462846C7
:1053E000FFF709FFBFF35F8F01236370002004F113
:1053F0000803BFF35F8F53E8006F43E80002002A01
:10540000F9D1BFF35F8F002E49D0FFF791FB20B198
:1054100029463046FFF798FF3AE0314602A8FFF7E9
:10542000B3FFE068B4F9105008B102F0A3F8069099
:105430001020ADF81C50FEF730FE0546E8B10027FD
:1054400087601820FEF729FE044688B10146876070
:1054500002A8FFF71BFE049BA268A360059B0492B1
:1054600006A9E268E36004F110000592FFF7C3FEAD
:105470000D4BEB600D4B2C60AB6006A8FFF7CAFE2E
:1054800002A8FFF7F4FD002229460948FFF758FB60
:105490003046FFF7ECFD1021304600F011FE684663
:1054A000FFF7B8FE09B0F0BD5B530D00D1550D00FC
:1054B000495B0D002DE9F04F8BB006460F46904634
:1054C00099469DF850A0FFF7B7FB07AD834630BB68
:1054D0004FF62E73059005A92846ADF81830FFF752
:1054E0008AFE1420FEF7D9FD044658B1022303704A
:1054F00001234370C0F804B0C0F808B029460C304E
:10550000FFF779FE3046214640F8044BFFF708FFCD
:105510002846FFF77FFE05A8FFF77CFE52E0002437
:105520000C2314206C60AC600793FEF7B6FD0146B7
:1055300018B1047044704460846004A80391FFF7BC
:10554000EFFE224B08930820FEF7A7FD044628B182
:10555000039B40F8043B04A9FFF7BAFC00955FFAEF
:105560008AF34A46414638460994FFF76DFB20B955
:10557000039B5B7803F0FF0283B1039B059304A9AF
:1055800006A8FFF7A5FC05A93046FFF79AFE06A876
:10559000FFF732F804A8FFF72FF813E04FF69C73DB
:1055A00005A903A80592ADF81830FFF7FDFE05A880
:1055B000FFF730FE05A80999FFF794FE06A8FFF74C
:1055C0001BF8DAE730460BB0BDE8F08F41570D000D
:1055D000022AF8B5044606D0032A17D0012A22D1A0
:1055E0000B6803601FE018200E68FEF756FD0546A5
:1055F00050B13146FFF7C8FE3069B6F9147008B1F2
:1056000001F0B8FF2861AF8225600CE0046854B156
:1056100004F11000FFF7FEFD2046FFF728FD1821DA
:10562000204600F04DFD0020F8BD38B50023836012
:105630008B6804460D462BB102229847EB68E36065
:10564000AB68A360204638BD022A70B5044606D078
:10565000032A11D0012A18D10B68036015E0142029
:105660000E68FEF71AFD054620B13146FFF7DDFF53
:10567000337C2B74256008E0046834B12046FFF7C2
:10568000F6FC1421204600F01BFD002070BD000038
:10569000F0B5002387B00C46BFF35F8F50E8006F72
:1056A00040E80032002AF9D1BFF35F8F002E3FD0CF
:1056B0001846FFF73DFA074620B121463046FFF76E
:1056C00053FE2EE0314601A8FFF7AFFF23788DF897
:1056D00014301020FEF7E1FC0546D0B1876014209D
:1056E000FEF7DBFC044678B18760014601A8FFF7AE
:1056F000CDFC039BA268A360049B0392E268E36075
:105700009DF81430049223740A4BEB600A4B2C6012
:10571000AB6001A8FFF7ABFC002229460748FFF762
:105720000FFA3046FFF7A3FC1021304600F0C8FC0A
:1057300007B0F0BD7B530D0049560D00495B0D00CD
:1057400030B585B004460D4668461146FFF7CAFDE0
:105750007CB124B228460DB101F00CFF029002A9E1
:105760006846ADF80C40FFF71FFE02A8FFF752FD98
:105770001DE000988DF808404FF00102D0E84F3F3F
:10578000A34203D1C0E8412F0029F7D102D08DF800
:1057900008300CE010F10C014FF0010318BF037347
:1057A000BFF35F8F043000F8033CFFF771FF01A8DF
:1057B000FEF722FF05B030BD704710B51821044632
:1057C00000F07EFC204610BDF0B5037D062B8DB0A9
:1057D0000E4600F104074FF0000402D000F1080566
:1057E00018E00CAD394605F8304D2F232A460A2023
:1057F000FFF7B6F8284601F0D8FE33680246DB68AA
:105800002946304698470FE024B12E213046FFF755
:10581000A5FB044415F8011D0A223046FFF7B7FB2B
:10582000BD420444F0D120460DB0F0BD10B5054B8B
:105830000446112240F8043B002101F060FE20469E
:1058400010BD00BF2C780D000346074A10B543F881
:10585000042B01F1100251F8044B43F8044B914220
:10586000F9D10A781A7010BD2C780D0010B59DF88A
:10587000084044EA032343EA024242EA0161042366
:105880004160037510BD37B50D788B784A78C978BB
:1058900000912946FFF7EAFF03B030BD417470471D
:1058A000704708B50021007CFFF71AF930EA2000A4
:1058B00028BF4FF0FF3008BD08B50121007CFFF77D
:1058C0000FF930EA200028BF4FF0FF3008BD08B5BF
:1058D000007CFFF7FDF820EAE07008BD08B5007C09
:1058E000FFF7EEF820EAE07008BD007CFFF708B98A
:1058F00010B51421044600F0E3FB204610BD38B576
:105900000446007C0D46FFF7E3F8002801DC607CCC
:1059100028B12946207CFFF7EBF820EAE07038BD7B
:1059200010B50446002363604FF47A73A360054BFF
:10593000236001230846217463741146FFF7B0F811
:10594000204610BD40780D000022007CFFF7B0B863
:1059500010B514220446002101F0D1FD204610BDEF
:1059600030B50E4D87B001A8FFF7F2FF296811F09E
:10597000010410D12846FEF796FB60B101AA21462A
:105980000748FFF7CDFF2846FEF792FB054A064978
:10599000034800F087FB024807B030BDE0E3032076
:1059A000E4E3032080E20320A1580D000022114609
:1059B0004068FFF7F9B8002211464068FFF714B9B4
:1059C000002211464068FFF71FB900224068FFF728
:1059D00013B9002281F001014068FFF7FDB80023F0
:1059E0001A4619464068FFF7EFB800231A461946D1
:1059F0004068FFF7E1B8002211464068FFF7C4B8DD
:105A0000002202214068FFF7C7B800231A46406809
:105A1000FFF7B2B838B5084C28252A4600212046A1
:105A200001F06DFD4FF0FF336360044B25800422CD
:105A30005A60034A1A6038BD00E40320F8E30320EB
:105A400070780D0070474174704708B5007CFEF710
:105A5000C7FF20EAE07008BD08B5007CFEF798FF9C
:105A600020EAE07008BD08B5007CFEF7A1FF30EA2F
:105A7000200028BF4FF0FF3008BD08B5007CFEF7BE
:105A80008FFF30EA200028BF4FF0FF3008BD007CB8
:105A9000FEF796BF10B51421044600F011FB204616
:105AA00010BD70B5457C04460E4625B9007CFEF756
:105AB00097FF002805DD3146207CBDE87040FEF7E9
:105AC0005FBF284670BD000010B504460846114669
:105AD000002262604FF47A72A260054A22600122BD
:105AE000207462741A46FEF743FF204610BD00BFC3
:105AF000A4780D00007CFEF76BBF000038B50C4D9C
:105B0000296811F0010411D12846FEF7CCFA68B1DA
:105B1000084A094B09482146FFF7D6FF2846FEF7F9
:105B2000C7FA074A0749054800F0BCFA034838BDE0
:105B3000C0E40320C4E403203CE4032028E4032061
:105B400080E20320455A0D0010B5836804460BB966
:105B500000F0C9FAC3689847A3681BB10322214625
:105B60002046984720461021BDE8104000F0A8BA12
:105B70007047F8B5064615460C468F18BC4206D04D
:105B8000336814F8011B9B6830469847F6E72846AF
:105B9000F8BD0022007CFEF743BF0021007CFEF729
:105BA00047BF0021007CFEF74BBF0021007CFEF7C1
:105BB0004FBF0021007CFEF753BF10B514210446EF
:105BC00000F07EFA204610BD10B504460023636045
:105BD0004FF47A73A360044B217408462360114686
:105BE000FEF74EFF204610BDD4780D0000231A4664
:105BF0001946007CFEF7FCBE70B50C4686B0142535
:105C000006462A46002101A801F079FC23788DF888
:105C1000083063680393E36804930022237A307C9E
:105C2000ADF8045001A90593FEF732FF06B070BD30
:105C30001FB500338DF800104FF06401039118BFB9
:105C40000123694601928DF80830FFF7D5FF05B0B2
:105C50005DF804FB0022007CFEF7D2BEC9B2FFF75C
:105C6000F9BF0022007CFEF7D3BE0021007CFEF7C6
:105C7000FFBE002211464068FEF7B6BF0022114663
:105C80004068FEF7C1BF00224068FEF7B5BF0022A2
:105C900081F001014068FEF79FBF00231A460121F1
:105CA0004068FEF791BF00231A4619464068FEF788
:105CB00083BF002211464068FEF776BF00221146DE
:105CC0004068FEF761BF002202214068FEF764BF12
:105CD00000231A464068FEF74FBF38B5054688B125
:105CE00004684CB1A3681BB10322214620469847A3
:105CF0001021204600F0E4F928461421BDE8384080
:105D000000F0DEB938BD10B103685B681847704712
:105D100010B503680446BBB15868FEF7F9FD78B9C1
:105D200023685A7C12B95868FEF7FAFD2368586850
:105D3000FEF7FEFD20680023236028B1FFF7CDFFAA
:105D4000206808B1FFF7C9FF204610BD38B50446EA
:105D5000D0F8C40108B1FEF7A4F9D4F8C00108B125
:105D6000FEF7F6FDD4F8BC5135B12846FFF7D0FF59
:105D70000421284600F0A4F9206808B1FFF7C3FF0A
:105D8000204638BD10B5044B044640F8083BFFF7E9
:105D9000DDFF204610BD00BFFC780D0038B50E4C6D
:105DA0000E4B23600025022304F5E4706360A560B8
:105DB000C4F8C451C4F8C851FEF7C2FD084BC4F87A
:105DC000CC5184F8D05123602046064A0649BDE8EC
:105DD000384000F067B900BF48E5032030790D0076
:105DE000FC780D0080E20320855D0D0000231A463B
:105DF0004068FEF7C1BE002202214068FEF7CCBE1B
:105E0000002211464068FEF7BFBE002211464068DE
:105E1000FEF7CABE00231A4619464068FEF7CCBEFC
:105E200000231A4619464068FEF7CEBE002281F0D4
:105E300001014068FEF7D0BE00224068FEF7DCBEDC
:105E4000002211464068FEF7DFBE0022114640687E
:105E5000FEF7CABE2DE9F043002495B016460D4664
:105E60000746FFF7E3FC214620220CA8009401F02E
:105E700046FB40230C9321466B460CAA3046FEF7A6
:105E8000EFFC0446002844D1024601216868FEF771
:105E90008BFE0221804622466868FEF785FE009E42
:105EA00081462146002E34D0002932D17368022B5E
:105EB00002D00A2B09D02AE0B8F1000F27D071696F
:105EC00038460431FFF7DFFC20E0B9F1000F1ED0A7
:105ED0007469112201A801F012FB06238DF8143019
:105EE00001AD04F108031834186859682A4603C242
:105EF0000833A3421546F7D101A906A807ADFFF75D
:105F0000A3FC0FCD3C1D0FC42B6823700121F66943
:105F1000C8E70098FEF79CFC384615B0BDE8F08352
:105F2000024B034A1A6000225A6070471CE70320A4
:105F300030790D0070B5184E316811F00105044636
:105F40000AD13046FEF7AFF830B129461348FEF7C4
:105F500009FF3046FEF7ACF81048FEF70DFF28B1F8
:105F6000A4F10B03022B01D8002070BD00F074F8DF
:105F7000FFF77BFE08B1012CF6D9FFF7BFFDFFF755
:105F8000B9FD18B1A4F10903012BEDD9232C8CBF65
:105F90000020012070BD00BF24E7032028E7032074
:105FA000232838B504460D460AD8FF2908D0FFF744
:105FB000C1FF28B129462046BDE83840FEF768BC3D
:105FC00038BD38B504460D46FEF76AFCFF2810D0F0
:105FD000062804D84D2323FA00F0C30709D420462D
:105FE000FFF7A8FF28B129462046BDE83840FEF754
:105FF0005FBC38BD0D2810B504469CBF0E34A4B25A
:106000002046FFF797FF50B103212046FEF738FCEA
:10601000032804D12046BDE81040FEF751BC002003
:1060200010BD000070B5044614252A46094E002113
:1060300001F065FA258020253146A56025612846B6
:1060400000F040F831466060284600F03BF8E06020
:10605000204670BD5C790D0030B50E4D296811F0F9
:10606000010487B013D12846FEF71DF878B101A8C6
:10607000FFF7D8FF01AA21460748FFF7A5FD2846EC
:10608000FEF716F8054A0649034800F00BF80248E7
:1060900007B030BD34E7032038E7032080E2032057
:1060A000715B0D000B460146184601F00FBA000067
:1060B000024B1868BFF35F8F704700BF4CE70320A7
:1060C000FDF7EDBF00F000B810B5002814BF04467E
:1060D00001242046FEF7C8FD20B9FFF7E9FF08B10B
:1060E0008047F6E710BD08B5FEF7E6FD184B1A68C5
:1060F000D1075CBF01221A60164B1A68D2075CBF39
:1061000001221A60144B1A68D0075CBF01221A6082
:10611000124B1A68D1075CBF01221A60104B1A6833
:10612000D2075CBF01221A600E4B1A68D0075CBF11
:1061300001221A600C4B1A68D1075CBF01221A6059
:106140000A4B1A68D2075CBF01221A60704700BF71
:106150006CE7032068E7032064E7032060E703207F
:106160005CE7032058E7032054E7032050E70320AF
:10617000244B1A68D0075CBF01221A60224B1A68B0
:10618000D1075CBF01221A60204B1A68D2075CBF9E
:1061900001221A601E4B1A68D0075CBF01221A60E8
:1061A0001C4B1A68D1075CBF01221A601A4B1A688F
:1061B000D2075CBF01221A60184B1A68D0075CBF77
:1061C00001221A60164B1A68D1075CBF01221A60BF
:1061D000144B1A68D2075CBF01221A60124B1A686E
:1061E000D0075CBF01221A60104B1A68D1075CBF50
:1061F00001221A600E4B1A68D2075CBF01221A6096
:10620000704700BF9CE7032098E7032094E7032032
:1062100090E703208CE7032088E7032084E703202E
:1062200080E703207CE7032078E7032074E703205E
:1062300070E70320244B1A68D0075CBF01221A6064
:10624000224B1A68D1075CBF01221A60204B1A68E2
:10625000D2075CBF01221A601E4B1A68D0075CBFD0
:1062600001221A601C4B1A68D1075CBF01221A6018
:106270001A4B1A68D2075CBF01221A60184B1A68C1
:10628000D0075CBF01221A60164B1A68D1075CBFA9
:1062900001221A60144B1A68D2075CBF01221A60EF
:1062A000124B1A68D0075CBF01221A60104B1A68A3
:1062B000D1075CBF01221A600E4B1A68D2075CBF7F
:1062C00001221A60704700BFCCE70320C8E7032013
:1062D000C4E70320C0E70320BCE70320B8E703209E
:1062E000B4E70320B0E70320ACE70320A8E70320CE
:1062F000A4E70320A0E70320184B1A68D1075CBF6E
:1063000001221A60164B1A68D2075CBF01221A607C
:10631000144B1A68D0075CBF01221A60124B1A682E
:10632000D1075CBF01221A60104B1A68D2075CBF0C
:1063300001221A600E4B1A68D0075CBF01221A6056
:106340000C4B1A68D1075CBF01221A600A4B1A680D
:10635000D2075CBF01221A60704700BFECE7032040
:10636000E8E70320E4E70320E0E70320DCE703207D
:10637000D8E70320D4E70320D0E7032000F060B87B
:106380002DE9F0432DED028B8BB055EC104B00F056
:106390004DF9294BB0EE408AF0EE608A93F9006027
:1063A000731C12D022462B462046294601F028F8BD
:1063B000074650B94FF000084FF000092046294623
:1063C00042464B4600F0F4FF40B9B0EE480AF0EE0A
:1063D000680A0BB0BDEC028BBDE8F083174B089741
:1063E0000122CDE90445CDE902458DE80C00B6B1A6
:1063F00042464B464046494600F092FE022ECDE909
:1064000006010ED1FEF768FC21230360089B73B9D7
:106410009DED060B0BB0BDEC028BBDE8F083CDE922
:106420000689684600F098FB0028EFD1EAE7FEF7FE
:1064300053FC089B0360EBE718E2032060790D0032
:1064400051EC110B43422DE9F047034321F0004882
:10645000754F48EAD373BB4255EC104B49D86342A1
:10646000234325F0004A4AEAD373BB42A94640D8E9
:1064700001F1404303F5801303438E4650D08E173D
:1064800006F0020654EA0A0346EAD57639D050EA05
:1064900008033ED0B84555D0BA453AD0C8EB0A08F3
:1064A0004FEA2858B8F13C0F40DC002970DB024667
:1064B0000B462046294600F033FE41EC100B00F05D
:1064C00043FB00F085F951EC100B012E5AD0022E3F
:1064D00048D0002E42D03EA3D3E9002300F042FB77
:1064E0003DA3D3E9002300F03DFB41EC100BBDE8D8
:1064F000F08722462B4600F037FB41EC100BBDE83D
:10650000F087022E16D0032E0ED19FED350BBDE87D
:10651000F087B9F1000F11DB9FED330BBDE8F08779
:10652000BDE8F04700F054B9BDE8F0872EA1D1E9ED
:106530000001CAE79FED280BBDE8F0879FED2C0B0B
:10654000BDE8F087C24529D0022EF3D0032EDCD05F
:10655000012E2DD09FED280BBDE8F08741EC100BEC
:10656000BDE8F0871AA3D3E9002300F0FBFA024646
:106570000B4619A1D1E9000100F0F4FA41EC100B2F
:10658000BDE8F08701F1004141EC100BBDE8F08758
:1065900018F13C0F8BDA0020002196E7022E13D071
:1065A000032E0DD0012E07D09FED150BBDE8F0870F
:1065B0009FED150BBDE8F0879FED150BBDE8F0874B
:1065C0009FED150BBDE8F0879FED150BBDE8F0873B
:1065D000075C143326A6A13C182D4454FB21094026
:1065E000182D4454FB2109C0182D4454FB21F93FB8
:1065F000182D4454FB21F9BF0000000000000000EA
:10660000182D4454FB21E93F0000000000000080E9
:10661000182D4454FB21E9BFD221337F7CD902C01D
:10662000D221337F7CD902400000F07F2DE9F04178
:10663000654955EC104B0E462940B14200F0978059
:10664000002D2B4610EE102A74DD2F157FD0A7F2F7
:10665000FF37C3F31303F90743F4801365D403EB47
:10666000D27100260B447F105200B64616204FF41C
:1066700000110EEB01049C424FEAD2754FEA420230
:1066800003DC1B1B04EB010E0E44013805EB430336
:106690004FEA5101EDD1844620244FF0004109E03A
:1066A00020D003EBD275013C4FEA51012B444FEA55
:1066B000420220D09E4501EB0C05F1DA002D05EBDE
:1066C000010C09DBF0469542CEEB030300D9013BF8
:1066D000521B0844C646E4E7BCF1000FF2DB0EF1A2
:1066E0000108F0E795421ED8002D05EB010C50DBA8
:1066F00098460023ECE7134304D0421C4DD000F031
:106700000103184440087110F30701F17F5101F5AE
:10671000001148BF40F0004001EB0753024643EC34
:10672000102BBDE8F0817346BBE75B0003EBD2732F
:10673000520094E725F00041214328D0ADBB2F46FD
:10674000D30A153F5205002BFAD0DD0228D40021D0
:1067500000E001465B00DC0201F10100F9D5C0F167
:10676000200422FA04F423437F1A82406FE710EEDC
:10677000102A2B4610EE100A294600F0A7FB2246ED
:106780002B4600F0F1F941EC100BBDE8F081BDE8BB
:10679000F081BCF1000FA2DAAAE701362046B2E789
:1067A00020244FF0FF310020DBE710EE102A2B46AB
:1067B0002046294600F0D6F902460B4600F0B0FC10
:1067C00041EC100BBDE8F0810000F07F00000000FC
:1067D0002DE9F84F55EC104BD14B25F000469E4269
:1067E000AB4610DDCF4B9E4200F3B28000F0AD808F
:1067F000BBF1000F40F3FD80ADA5D5E9004545ECA8
:10680000104BBDE8F88FC84B9E4200F3C080A3F147
:10681000DE739E4240F3A8804FF0FF3A22462B469B
:106820002046294600F052FB02460B468046894628
:1068300000F04CFBA0A3D3E9002306460F4600F06E
:1068400045FB9FA3D3E9002300F08EF932463B4677
:1068500000F03CFB9CA3D3E9002300F085F932460D
:106860003B4600F033FB9AA3D3E9002300F07CF908
:1068700032463B4600F02AFB97A3D3E9002300F001
:1068800073F932463B4600F021FB95A3D3E9002380
:1068900000F06AF942464B4600F018FB92A3D3E998
:1068A0000023804689463046394600F00FFB90A30E
:1068B000D3E9002300F056F932463B4600F006FBD0
:1068C0008DA3D3E9002300F04DF932463B4600F09A
:1068D000FDFA8BA3D3E9002300F044F932463B468E
:1068E00000F0F4FA88A3D3E9002300F03BF9324624
:1068F0003B4600F0EBFABAF1FF3F02460B467CD074
:106900004046494600F030F922462B4600F0DEFAB8
:10691000864E874B4FEACA0A56449A44DAE9002366
:1069200000F020F922462B4600F01CF902460B46E7
:10693000D6E9000100F016F9BBF1000F52DB044666
:106940000D4645EC104BBDE8F88F002C3FF450AFDE
:1069500022462B462046294600F006F904460D46FD
:1069600045EC104BBDE8F88F69A3D3E9002310EE86
:10697000100A294600F0F8F800226E4B00F036FDB0
:1069800000283FF449AF45EC104BBDE8F88F00F00C
:10699000DBF8694B9E4255EC104B3FDCA3F55023CE
:1069A0009E4268DC10EE102A10EE100A2B46294693
:1069B00000F0DAF800225F4B00F0D4F8002206461F
:1069C0000F464FF080432046294600F0CDF802469E
:1069D0000B463046394600F0A3FB4FF0000A044650
:1069E0000D461BE7044601F1004545EC104BBDE8A0
:1069F000F88F49A5D5E90045B2E74046494600F081
:106A0000B3F822462B4600F061FA02460B462046B8
:106A1000294600F0A7F804460D46A1E7474B9E42E1
:106A20001DDC10EE100A0022454B294600F09AF8B2
:106A3000002206460F46424B2046294600F046FA01
:106A400000223C4B00F090F802460B463046394697
:106A500000F066FB4FF0020A04460D46DEE62B46C8
:106A600010EE102A0020374900F05AFB4FF0030ABD
:106A700004460D46D2E610EE100A00222D4B2946A0
:106A800000F070F8002206460F462A4B20462946A1
:106A900000F06AF802460B463046394600F040FBEB
:106AA0004FF0010A04460D46B8E600BFAFF3008080
:106AB000182D4454FB21F93F11DA22E33AAD903FFF
:106AC000EB0D76244B7BA93F513DD0A0660DB13F25
:106AD0006E204CC5CD45B73FFF8300922449C23F8D
:106AE0000D5555555555D53F2F6C6A2C44B4A2BF52
:106AF0009AFDDE522DDEAD3F6D9A74AFF2B0B33F1A
:106B0000711623FEC671BC3FC4EB98999999C93F91
:106B10009C7500883CE4377E182D4454FB21F9BF56
:106B2000FFFF0F440000F07FFFFFDB3F88790D007F
:106B300068790D000000F03FFFFFF23FFF7F034048
:106B40000000F83F0000F0BF53EC102B23F000438F
:106B500043EC102B704700BF0020704781F00041CC
:106B600002E000BF83F0004330B54FEA41044FEA32
:106B7000430594EA050F08BF90EA020F1FBF54EACD
:106B8000000C55EA020C7FEA645C7FEA655C00F069
:106B9000E2804FEA5454D4EB5555B8BF6D420CDD3A
:106BA0002C4480EA020281EA030382EA000083EABD
:106BB000010180EA020281EA0303362D88BF30BD5D
:106BC00011F0004F4FEA01314FF4801C4CEA1131B3
:106BD00002D0404261EB410113F0004F4FEA033312
:106BE0004CEA133302D0524263EB430394EA050F9D
:106BF00000F0A780A4F10104D5F1200E0DDB02FA0C
:106C00000EFC22FA05F2801841F1000103FA0EF29F
:106C1000801843FA05F359410EE0A5F120050EF165
:106C2000200E012A03FA0EFC28BF4CF0020C43FA96
:106C300005F3C01851EBE37101F0004507D54FF0A3
:106C4000000EDCF1000C7EEB00006EEB0101B1F5F3
:106C5000801F1BD3B1F5001F0CD349085FEA300039
:106C60004FEA3C0C04F101044FEA445212F5800F44
:106C700080F09A80BCF1004F08BF5FEA500C50F1E1
:106C8000000041EB045141EA050130BD5FEA4C0CC4
:106C9000404141EB010111F4801FA4F10104E9D14D
:106CA00091F0000F04BF01460020B1FA81F308BF44
:106CB0002033A3F10B03B3F120020CDA0C3208DD10
:106CC00002F1140CC2F10C0201FA0CF021FA02F1EB
:106CD0000CE002F11402D8BFC2F1200C01FA02F15B
:106CE00020FA0CFCDCBF41EA0C019040E41AA2BF80
:106CF00001EB0451294330BD6FEA04041F3C1CDA48
:106D00000C340EDC04F11404C4F1200220FA04F067
:106D100001FA02F340EA030021FA04F345EA030111
:106D200030BDC4F10C04C4F1200220FA02F001FAD3
:106D300004F340EA0300294630BD21FA04F0294655
:106D400030BD94F0000F83F4801306BF81F48011EE
:106D50000134013D4EE77FEA645C18BF7FEA655C61
:106D600029D094EA050F08BF90EA020F05D054EA33
:106D7000000C04BF1946104630BD91EA030F1EBF38
:106D80000021002030BD5FEA545C05D1400049413C
:106D900028BF41F0004130BD14F580043CBF01F52F
:106DA000801130BD01F0004545F0FE4141F4700115
:106DB0004FF0000030BD7FEA645C1ABF19461046F0
:106DC0007FEA655C1CBF0B46024650EA013406BFF1
:106DD00052EA033591EA030F41F4002130BD00BFB0
:106DE00090F0000F04BF0021704730B54FF480646D
:106DF00004F132044FF000054FF0000150E700BFEE
:106E000090F0000F04BF0021704730B54FF480644C
:106E100004F1320410F0004548BF40424FF0000139
:106E20003EE700BF42004FEAE2014FEA31014FEA7C
:106E300002701FBF12F07F4393F07F4F81F06051CB
:106E4000704792F0000F14BF93F07F4F704730B53A
:106E50004FF4607401F0004521F0004120E700BFCD
:106E600050EA010208BF704730B54FF000050AE054
:106E700050EA010208BF704730B511F0004502D555
:106E8000404261EB41014FF4806404F132045FEA57
:106E9000915C3FF4DCAE4FF003025FEADC0C18BFFC
:106EA00003325FEADC0C18BF033202EBDC02C2F1F2
:106EB000200300FA03FC20FA02F001FA03FE40EA84
:106EC0000E0021FA02F11444C1E600BF70B54FF084
:106ED000FF0C4CF4E06C1CEA11541DBF1CEA135566
:106EE00094EA0C0F95EA0C0F00F0DEF82C4481EACE
:106EF000030621EA4C5123EA4C5350EA013518BFEE
:106F000052EA033541F4801143F4801338D0A0FBDA
:106F100002CE4FF00005E1FB02E506F00042E0FB87
:106F200003E54FF00006E1FB03569CF0000F18BF8D
:106F30004EF0010EA4F1FF04B6F5007F64F5407435
:106F400004D25FEA4E0E6D4146EB060642EAC621C8
:106F500041EA55514FEAC52040EA5E504FEACE2E35
:106F6000B4F1FD0C88BFBCF5E06F1ED8BEF1004F38
:106F700008BF5FEA500E50F1000041EB045170BDB4
:106F800006F0004646EA010140EA020081EA0301F8
:106F9000B4EB5C04C2BFD4EB0C0541EA045170BDF4
:106FA00041F480114FF0000E013C00F3AB8014F16E
:106FB000360FDEBF002001F0004170BDC4F10004B7
:106FC000203C35DA0C341BDC04F11404C4F1200538
:106FD00000FA05F320FA04F001FA05F240EA020093
:106FE00001F0004221F0004110EBD37021FA04F6C9
:106FF00042EB06015EEA430E08BF20EAD37070BD83
:10700000C4F10C04C4F1200500FA04F320FA05F0E1
:1070100001FA04F240EA020001F0004110EBD370E3
:1070200041F100015EEA430E08BF20EAD37070BD53
:10703000C4F1200500FA05F24EEA020E20FA04F32C
:1070400001FA05F243EA020321FA04F001F00041DB
:1070500021FA04F220EA020000EBD3705EEA430E4C
:1070600008BF20EAD37070BD94F0000F0FD101F07B
:107070000046400041EB010111F4801F08BF013CB4
:10708000F7D041EA060195F0000F18BF704703F0F2
:107090000046520043EB030313F4801F08BF013D79
:1070A000F7D043EA0603704794EA0C0F0CEA135535
:1070B00018BF95EA0C0F0CD050EA410618BF52EAEF
:1070C0004306D1D181EA030101F000414FF00000F5
:1070D00070BD50EA410606BF1046194652EA430603
:1070E00019D094EA0C0F02D150EA013613D195EA77
:1070F0000C0F05D152EA03361CBF104619460AD1BF
:1071000081EA030101F0004141F0FE4141F47001C8
:107110004FF0000070BD41F0FE4141F4780170BDB8
:1071200070B54FF0FF0C4CF4E06C1CEA11541DBF1D
:107130001CEA135594EA0C0F95EA0C0F00F0A7F81F
:10714000A4EB050481EA030E52EA03354FEA01314C
:1071500000F088804FEA03334FF0805545EA13135F
:1071600043EA12634FEA022245EA111545EA106527
:107170004FEA00260EF000419D4208BF964244F1BE
:10718000FD0404F5407402D25B084FEA3202B61ADD
:1071900065EB03055B084FEA32024FF480104FF4B1
:1071A000002CB6EB020E75EB030E22BFB61A754625
:1071B00040EA0C005B084FEA3202B6EB020E75EBB8
:1071C000030E22BFB61A754640EA5C005B084FEA20
:1071D0003202B6EB020E75EB030E22BFB61A7546ED
:1071E00040EA9C005B084FEA3202B6EB020E75EBF8
:1071F000030E22BFB61A754640EADC0055EA060EB9
:1072000018D04FEA051545EA16754FEA06164FEAFB
:10721000C30343EA52734FEAC2025FEA1C1CC0D1A7
:1072200011F4801F0BD141EA00014FF000004FF034
:10723000004CB6E711F4801F04BF01430020B4F1F5
:10724000FD0C88BFBCF5E06F3FF6AFAEB5EB030CAD
:1072500004BFB6EB020C5FEA500C50F1000041EBAA
:10726000045170BD0EF0004E4EEA113114EB5C0477
:10727000C2BFD4EB0C0541EA045170BD41F480114A
:107280004FF0000E013C90E645EA060E8DE60CEA52
:10729000135594EA0C0F08BF95EA0C0F3FF43BAF6F
:1072A00094EA0C0F0AD150EA01347FF434AF95EA26
:1072B0000C0F7FF425AF104619462CE795EA0C0F0A
:1072C00006D152EA03353FF4FDAE1046194622E7D7
:1072D00050EA410618BF52EA43067FF4C5AE50EAB1
:1072E00041047FF40DAF52EA43057FF4EBAE12E7A1
:1072F0004FF0FF3C06E000BF4FF0010C02E000BF82
:107300004FF0010C4DF804CD4FEA410C7FEA6C5C64
:107310004FEA430C18BF7FEA6C5C1BD001B050EA07
:10732000410C0CBF52EA430C91EA030F02BF90EAF2
:10733000020F0020704710F1000F91EA030F58BFB1
:10734000994208BF90422CBFD8176FEAE37040F013
:10735000010070474FEA410C7FEA6C5C02D150EAB1
:10736000013C07D14FEA430C7FEA6C5CD6D152EA6C
:10737000033CD3D05DF8040B704700BF8446104631
:1073800062468C461946634600E000BF01B5FFF730
:10739000B7FF002848BF10F1000F01BD4DF808ED00
:1073A000FFF7F4FF0CBF012000205DF808FB00BFD1
:1073B0004DF808EDFFF7EAFF34BF012000205DF82B
:1073C00008FB00BF4DF808EDFFF7E0FF94BF012078
:1073D00000205DF808FB00BF4DF808EDFFF7CEFF79
:1073E00094BF012000205DF808FB00BF4DF808EDB8
:1073F000FFF7C4FF34BF012000205DF808FB00BF89
:107400004FEA410C7FEA6C5C02D150EA013C0AD1A0
:107410004FEA430C7FEA6C5C02D152EA033C02D192
:107420004FF0000070474FF0010070474FEA4102F3
:10743000B2F1E04324BFB3F5001CDCF1FE5C0DD9D2
:1074400001F0004C4FEAC0024CEA5070B2F1004F1C
:1074500040EB830008BF20F00100704711F0804F1F
:1074600021D113F13872BCBF01F00040704741F4E4
:1074700080114FEA5252C2F11802C2F1200C10FAE8
:107480000CF320FA02F018BF40F001004FEAC123CC
:107490004FEAD32303FA0CFC40EA0C0023FA02F370
:1074A0004FEA4303CCE77FEA625307D150EA013346
:1074B0001EBF4FF0FE4040F44000704701F0004016
:1074C00040F0FE4040F40000704700BF10B5054C8E
:1074D00013462CB10A4601460220AFF3008010BDCE
:1074E000204610BD0000000010B5431E0A44914222
:1074F00004D011F8014B03F8014FF8E710BD024426
:107500000346934202D003F8011BFAE770470000DC
:1075100038B5124B1C68A36B0546D3B91820FDF78C
:10752000A3FB43F20E33A06303804AF6CD334380BE
:1075300041F2342383804EF26D63C3804DF6EC63D9
:107540000381052343810B23838101220023C0E9AA
:107550000423A36B00221D615A6138BD7CE2032025
:1075600010F8012B11F8013B012A28BF9A42F7D0ED
:10757000D01A7047024B0146186800F003B800BFEC
:107580007CE2032070B5064608460C4600F00DF874
:10759000451C29463046FDF797FB064618B12A469A
:1075A0002146FFF7A1FF304670BD034613F8012BBB
:1075B000002AFBD1181A01387047000021400D0045
:1075C0005D400D0089400D008D400D000000000061
:1075D00014A4063C283D923E773A243EEA5F594087
:1075E000B9CA5F3E48C791BF6F6E006F66660054B0
:1075F00072616E736D697373696F6E20626567691E
:107600006E2E2E2E0077726974696E67202D2025EC
:107610006420737562416464726573730077726984
:1076200074696E67202D20256420646174610054A4
:1076300072616E736D697373696F6E2073756363C6
:1076400065737366756C21005472616E736D697336
:1076500073696F6E206661696C65642E00417320EA
:10766000576972652E656E645472616E736D6973CD
:1076700073696F6E2072657475726E732061206E0F
:107680006F6E2D7A65726F2076616C756520692E3C
:10769000652E2C20256400636F6E7461696E6572BF
:1076A00057656967687400537472696E67576569D6
:1076B0006768740064756D70737465722D6C6F61AA
:1076C00064696E67006C6564002566000000000058
:1076D00000000000474D0D003D4D0D00334D0D00E5
:1076E000294D0D001D4D0D00114D0D00054D0D00D6
:1076F000FD4C0D00F34C0D00E94C0D00555E0D00E6
:10770000626175640053657269616C0053657269EA
:10771000616C31007479706500706172616D006335
:107720006D6400696400686E64007374726D006655
:10773000696C74006C766C0061646448616E646CA2
:1077400065720072656D6F766548616E646C657216
:1077500000656E756D48616E646C657273004A53A6
:107760004F4E53747265616D4C6F6748616E646C07
:1077700065720061707000253031307520005D2029
:10778000002C200028293A2000205B00636F6465EC
:10779000203D200025690064657461696C73203D9B
:1077A00020000D0A006C6E00666E00636F64650059
:1077B00064657461696C006E6F6E650074726163FC
:1077C0006500696E666F007761726E006572726F38
:1077D000720070616E696300616C6C005A00252B49
:1077E0003033643A253032750025592D256D2D250D
:1077F000645425483A254D3A2553257A0061736330
:1078000074696D65000000000000000000000000C9
:10781000D9510D00DF510D0023520D00ED510D0027
:10782000DB510D000000000000000000C9570D00F2
:10783000B9570D00BB570D0000000000000000000C
:10784000A1580D00F1580D00FF580D00094F0D0013
:10785000DD580D00A3580D00B9580D00EB580D0070
:10786000CF580D009D580D000000000000000000E2
:107870000B5A0D00015A0D00F7590D00AD590D00BE
:10788000EB590D00DF590D00D3590D00CB590D00F8
:10789000C1590D00B7590D00555E0D0000000000E4
:1078A00000000000455A0D00955A0D00A35A0D0026
:1078B000094F0D00595A0D007B5A0D00675A0D00F3
:1078C0008F5A0D00475A0D004B5A0D000000000062
:1078D00000000000715B0D00BB5B0D00935B0D00B1
:1078E000735B0D009B5B0D00A35B0D00AB5B0D009C
:1078F000B35B0D000000000000000000D15C0D0033
:10790000C75C0D00BD5C0D00B35C0D00A75C0D00F5
:107910009B5C0D008F5C0D00875C0D007D5C0D0095
:10792000735C0D00555E0D000000000000000000BB
:10793000ED5D0D00F75D0D00015E0D000B5E0D00AD
:10794000155E0D00215E0D002D5E0D00395E0D00EF
:10795000415E0D004B5E0D00555E0D000000000005
:107960007371727400000000E2652F227F2B7A3C55
:10797000075C143326A6813CBDCBF07A8807703CA7
:10798000075C143326A6913C4FBB610567ACDD3F15
:10799000182D4454FB21E93F9BF681D20B73EF3F36
:1079A000182D4454FB21F93F0000000000000000A6
:1079B00000000000000000000000000000000000C7
:1079C00000000000000000000000000000000000B7
:1079D00000000000000000000000000000000000A7
:1079E0000000000000000000000000000000000097
:1079F0000000000000000000000000000000000087
:107A00000000000000000000430000000D480D00D1
:107A1000514D0D00814D0D00E14E0D0045500D0002
:107A200055500D00AD500D00155A0D009D5D0D0017
:107A3000215F0D00ED600D0071610D0035620D00DC
:107A4000F9620D00000000000000000000000000CE
:047A50000000000032
:107A5400FD770D000100000000000000A8790D0072
:107A6400C8790D00E8790D00000000000000000056
:107A74000000000000000000087A0D000000000073
:107A840000000000000000000000000000000000F2
:107A940000000000000000000000000000000000E2
:107AA40000000000000000000000000000000000D2
:0C7AB40000000000000000001CE20320A5
:107AC000FFFFFFFF00000102030405060708090A83
:107AD0000B0C0D0E0F101112131415161718191A7E
:087AE0001B1C1D1E1F202800C5
:047AE8007856341286
:04000003D0004020C9
:00000001FF
