:02000002D0002C
:1040000000400D0008730D00000006000D000501C2
:084010000401E80500000000B6
:04401800346E0D00F5
:1040200009480A49884208B505D0094A824202D0A7
:10403000121A02F095FE0748074A0021121A02F0F0
:104040009AFE014808BD00BFE4E2032074720D002F
:1040500050E3032050E30320F0E7032070B500F0A5
:1040600089FF074C074BE41AA40800251E46A54209
:1040700004D056F8253098470135F8E770BD00BFE9
:1040800070720D0038720D0000F0F4B908B500F040
:1040900047FABDE8084000F02FBF00F0DFBC00F099
:1040A000E5BC00F0E3BC0078B0FA80F0400970474E
:1040B000012303707047000038B50D49054600F034
:1040C000E7FD044628B10121072001F074FE01201C
:1040D00038BD0849284600F0DBFD28B121460720FD
:1040E00001F069FE204638BD4FF0FF3038BD00BFFB
:1040F000486E0D004B6E0D0010B50446006808B107
:1041000000F0B4FC204610BD0368C9B29B68184794
:1041100070B5064614460D4601F098FE314601F092
:1041200097FC01F017FB294900F00EFE01F012FB8D
:10413000274900F01CFE01F089FE2946FFF7E4FF45
:1041400001F008FB2B46234A002100F03AFE01F063
:1041500001FB1F4900F00BFE01F078FE2146FFF73E
:10416000D3FF01F0F7FA23461B4A1C4C002100F054
:1041700028FE01F0EFFA164900F0F9FD01F066FEA5
:10418000012101F068FC206028B901F0E3FA14492C
:1041900000F0DAFD10E001F0DDFA124900F0D4FD84
:1041A00001F0D8FA0A4900F0E2FD01F0D3FA2368E1
:1041B0000D4A002100F005FE01F0CCFA044900F0A0
:1041C000D6FDC820BDE8704000F048BE4F6E0D001F
:1041D00010700D00656E0D007D6E0D00A0E30320D4
:1041E0008F6E0D00A86E0D00BD6E0D002DE9F04F15
:1041F0002DED028B054683B09A460C46934601F09E
:1042000025FE294601F024FC01F020FE3B21FFF7AA
:104210007BFF01F01BFE002101F01DFC01F016FEEA
:10422000E9B20E22012301F0FDFB01F00FFE03684D
:104230005B699847804601F009FE03685B6998470F
:1042400040EA082801F002FE03685B6998470746C8
:1042500001F0FCFD03685B69984740EA072701F01D
:10426000F5FD03685B699847064601F0EFFD0368BA
:104270005B69984740EA062601F0E8FD03685B6940
:104280009847054601F0E2FD03685B69984740EAFC
:10429000052308EE103A01F0D9FD03685B699847E1
:1042A000054601F0D3FD03685B69984740EA0525A0
:1042B00001F0CCFD03685B699847814601F0C6FDBB
:1042C00003685B69984740EA0922019201F0BEFD4C
:1042D00003685B699847814601F0B8FD03685B6934
:1042E000984740EA092901F0B1FD012101F0B3FB33
:1042F000B8F5004FB4BFC8F10008C8F5803807EE24
:10430000908ADFED4B6A4B4B019A1860B7F5004F6E
:10431000B8EEE77AB4BF7F42C7F5803727EE267A3A
:10432000B6F5004F07EE907AB4BF7642C6F58036F8
:1043300084ED007AB8EEE77A07EE906A27EE267AE7
:10434000F8EEE77A84ED017A67EEA67A9FED3A7A85
:10435000C4ED027AB8EEC88AB5F5004FC8EE077A08
:10436000B4BF6D42C5F580356D42B2F5004FB4BFA4
:104370005242C2F58032B9F5004FB4BFC9F100090D
:10438000C9F5803901939FED2D7A77EE877A9FEDFD
:104390002C7ACBED007A07EE905AF8EEE77AC7EE6A
:1043A000876A07EE902AF8EEE77ACAED006AC7EE50
:1043B000876A07EE909AF8EEE77ACAED016AC7EECF
:1043C000876ACAED026AD4ED017AD4ED006A94EDF1
:1043D000027A67EEA77AE6EEA67AE7EE077A17EE9C
:1043E000900A02F05BF941EC100B01F0C1FE51ECB8
:1043F000100B02F057FC134A019B06EE900A04F1E1
:104400000C0194ED007AC7EE267AE4EC017AB2EC66
:10441000017ADAED007A77EE877AA142EAEC017A46
:10442000EFD1186803B0BDEC028BBDE8F08F00BF80
:1044300000008038A0E303200000AA43B81E124207
:10444000000003432C6F0D0038B5046805467CB1AD
:104450006368013B63605BB9236820469B689847AB
:10446000A368013BA3601BB923682046DB6898471B
:10447000284638BD30B585B001F06CF94FF41651BF
:1044800001F05CF901F0E2FC01F0AAFA642000F00E
:10449000E5FC184D184C00226B216820FFF738FE10
:1044A0000121072001F076FC00232946022213484F
:1044B00000F0ACFA2A681249204600F0E7FA2146DB
:1044C000002304220F4800F0A1FA0F4B0F491B787C
:1044D0008DF8003022463C2302A800F0E5FE03A838
:1044E000FFF7B2FF0A4A0B490B4800F0CDFD05B0BB
:1044F00030BD00BF90E3032070E30320F76E0D0092
:10450000F46E0D00076F0D008EE30320146F0D0095
:10451000256F0D00B9400D005D500D00000000003A
:1045200030B5132085B001F05FFC07EE900AB8EEBD
:10453000E77ADFED277A274B274D1860C7EE276A09
:10454000044616EE900A02F0A9F81DA3D3E9002351
:1045500002F0F8F81CA3D3E9002302F0F3F802F00C
:10456000A1FB1E4B1E4918602246284600F08EFA19
:104570001C4B1D491B788DF800302A463C2302A8AD
:104580001A4C00F091FE03A8FFF75EFF184A194B82
:1045900021466820FFF72AFE174B186001F0DAF871
:1045A0000546A06802F07AF8144ACDE9000101211D
:1045B000284600F006FC642000F050FC05B030BD39
:1045C0006666666666660A40CDCCCCCCCCCC004034
:1045D00000F07F4590E3032070E30320A4E3032071
:1045E000F46E0D008EE30320146F0D0058E30320DA
:1045F00054E3032064E30320A0E30320296F0D00AC
:1046000010B50C4B0C4C01221A7000F02BF8002353
:104610002360A380A371238102204FF6FF7363817F
:1046200000F070F92046054A0549BDE8104001F048
:1046300033BC00BF8EE3032094E3032050E3032048
:10464000F9400D0008B5024B1B689B68019308BD3B
:104650006802030008B5024B1B68DB68019308BDC4
:104660006802030008B5024B1B681B68019308BD74
:104670002C02030008B5024B1B685B68019308BD60
:104680002C02030008B5024B1B689B68019308BD10
:104690002C02030008B5024B1B68DB68019308BDC0
:1046A0002C02030008B5024B1B681B69019308BD6F
:1046B0002C02030008B5024B1B681B6B019308BD5D
:1046C0002C02030008B5024B1B68DB69019308BD8F
:1046D0003002030008B5024B1B681B6A019308BD3A
:1046E0003002030008B5024B1B685B68019308BDEC
:1046F0001802030008B5024B1B685B69019308BDF3
:104700001802030008B5024B1B689B68019308BDA3
:104710004802030008B5024B1B681B69019308BDE2
:104720004802030008B5024B1B685B69019308BD92
:104730004802030008B5024B1B685B6C019308BD7F
:104740004802030008B5024B1B689B6C019308BD2F
:104750004802030008B5024B1B685B69019308BD62
:104760006402030008B5024B1B681B68019308BD77
:104770003C02030008B5024B1B68DB68019308BDCF
:104780003C02030008B5024B1B681B69019308BD7E
:104790003C02030008B5024B1B685B69019308BD2E
:1047A0003C02030008B5024B1B689B69019308BDDE
:1047B0003C02030008B5024B1B68DB69019308BD8E
:1047C0003C02030008B5024B1B681B6A019308BD3D
:1047D0003C02030008B5024B1B689B6A019308BDAD
:1047E0003C02030008B5024B1B68DB68019308BD5F
:1047F0002802030008B5024B1B689B69019308BDA2
:104800002802030008B5024B1B68DB69019308BD51
:104810002802030008B5024B1B681B6A019308BD00
:104820002802030008B5024B1B685B6A019308BDB0
:104830002802030008B5024B1B689B6A019308BD60
:104840002802030008B5024B1B68DB6A019308BD10
:104850002802030008B5024B1B681B6B019308BDBF
:104860002802030008B5024B1B685B6B019308BD6F
:104870002802030008B5024B1B681B6C019308BD9E
:104880002802030008B5024B1B681B6D019308BD8D
:104890002802030008B5024B1B681B68019308BD82
:1048A0004C02030008B5024B1B685B68019308BD0E
:1048B0004C02030008B5024B1B681B69019308BD3D
:1048C0004C02030008B5024B1B685B69019308BDED
:1048D0004C02030008B5024B1B689B69019308BD9D
:1048E0004C02030008B5024B1B68DB69019308BD4D
:1048F0004C02030008B5024B1B681B6A019308BDFC
:104900004C02030008B5024B1B685B68019308BDAD
:104910002002030008B5024B1B685B69019308BDC8
:104920002002030008B5024B1B68DB6C019308BD35
:104930002002030008B5024B1B685B6D019308BDA4
:104940002002030008B5034B1B68D3F8883001939D
:1049500008BD00002002030008B5034B1B68D3F814
:104960009430019308BD00002002030008B5024BFB
:104970001B685B68019308BD4002030008B5024B49
:104980001B689B68019308BD4002030008B5024BF9
:104990001B68DB68019308BD4002030008B5024BA9
:1049A0001B681B69019308BD4002030008B5024B58
:1049B0001B685B69019308BD4002030008B5024B08
:1049C0001B689B69019308BD4002030008B5024BB8
:1049D0001B68DB69019308BD4002030008B5024B68
:1049E0001B681B6A019308BD4002030008B5024B17
:1049F0001B681B6B019308BD4002030008B5024B06
:104A00001B685B6B019308BD4002030008B5024BB5
:104A10001B681B68019308BD4402030008B5024BE4
:104A20001B685B68019308BD4402030008B5024B94
:104A30001B685B69019308BD4402030008B5024B83
:104A40001B681B6A019308BD4402030008B5024BB2
:104A50001B68DB6B019308BD4402030008B5024BE1
:104A60001B681B68019308BD1C02030008B5024BBC
:104A70001B685B68019308BD1C02030008B5024B6C
:104A80001B689B68019308BD1C02030008B5024B1C
:104A90001B68DB68019308BD1C02030008B5024BCC
:104AA0001B685B6A019308BD1C02030008B5024B3A
:104AB0001B68DB6A019308BD1C02030008B5024BAA
:104AC0001B681B6B019308BD1C02030008B5024B59
:104AD0001B68DB6B019308BD1C020300002211461A
:104AE0004068FFF77BBF002211464068FFF786BF92
:104AF00000224068FFF77ABF002281F00101406880
:104B0000FFF764BF00231A4619464068FFF756BFF7
:104B100000231A4619464068FFF748BF0022114695
:104B20004068FFF73BBF002211464068FFF726BFF1
:104B3000002202214068FFF729BF00231A4640687F
:104B4000FFF714BF024B03225A60024A1A607047F3
:104B5000A8E30320406F0D0010B50446017008461D
:104B6000FFF7B0FD00236360204610BD0078FFF71B
:104B7000B1BD000010B5094C00204FF6FF73206056
:104B8000A080A07120816381FFF7BCFE2046044A0B
:104B90000449BDE8104001F07FB900BFB0E3032035
:104BA00050E30320F9400D0010B504460068FFF7FC
:104BB0005DFF204610BD10B50446006808B1FFF740
:104BC00055FF00232360A360636010BD38B5044621
:104BD0000D4600680131FFF751FF10B184E8210054
:104BE000012038BD10B50368044613B143688B42F9
:104BF00007D22046FFF7EAFF20B1A3680BB922686D
:104C00001370012010BD70B50E46114604461546BE
:104C1000FFF7E8FF18B92046FFF7CDFF09E02A4665
:104C20003146A560206802F09BF82268A368002145
:104C3000D154204670BD38B500230446036043605C
:104C4000836003730D4639B1084602F0EAF829463D
:104C500002462046FFF7D7FF204638BD884210B5F0
:104C60000B46044607D0096819B19A68FFF7CBFFD5
:104C700001E0FFF7A0FF204610BD10B50023044659
:104C80000360436083600373FFF7E8FF204610BDB5
:104C900008B582680B4612B919B9012008BD11B9CF
:104CA0000368187802E0006802F096F8B0FA80F025
:104CB000400908BD10B50446006808B1FFF742FD81
:104CC000204610BD0B68036013B15A6801325A6068
:104CD0007047000010B5064C002320462360FFF704
:104CE00029FD2046034A0449BDE8104001F0D4B82C
:104CF000BCE3032050E30320B54C0D00F8B5064695
:104D00000D468F180024BD420CD0336815F8011BE6
:104D10009B6830469847002801DB0444F3E7002CE9
:104D200008BF04462046F8BD70B505460C46084647
:104D300049B102F076F82B68024621462846DB6826
:104D4000BDE87040184770BD08B5FFF7EDFF08BD1E
:104D500003689B68184738B50D210546FFF7F8FF33
:104D60000A2104462846FFF7F3FF204438BD38B532
:104D70000546FFF7D9FF04462846FFF7ECFF20441D
:104D800038BD30B58BB00B4600218DF82410012AB8
:104D900098BF0A220DF12304B3FBF2F505FB123391
:104DA00003F0FF03092B94BF30333733DBB22146C6
:104DB00004F801392B46002DEED1FFF7B5FF0BB0FB
:104DC00030BD0CB42DE9F04387B000AF07F13804D3
:104DD000054654F8049B3C600E4623464A4614217F
:104DE000381DFFF75BFE132805D8391D2846FFF74D
:104DF0009BFF044613E000F1080323F00703E84695
:104E0000ADEB030D411C23464A4668463C60FFF764
:104E100045FE69462846FFF787FF0446C5461EB192
:104E20002846FFF798FF044420461C37BD46BDE8DE
:104E3000F04302B070470000014B024A1A6070470D
:104E4000C0E30320DF6F0D00024B1A68024B1A60AB
:104E5000704700BFE4E20320C4E303200021FFF712
:104E600059BD10B58368044613B103220146984723
:104E7000204610BD10B50446FFF7F3FF204610BDD5
:104E800013B50B46044603C88DE8030093E80300FE
:104E900084E803009DE8030083E8030002B010BD2E
:104EA0000348044A04490023836000F0F5BF00BFB3
:104EB000C8E3032050E30320754E0D0008B50C4BEA
:104EC00033B100F047FC03681B699847002809DCF0
:104ED000084B63B100F00CFD03681B69984700287C
:104EE00003DC08BDAFF30080F2E7AFF3008008BD3C
:104EF000000000000000000008B5FFF7DFFFFFF72B
:104F0000F9FB014B186008BD30E703200248034A53
:104F10000349121A01F024BF00F4032004F4032013
:104F200070720D0007B5002300931A466FF07701E9
:104F3000FFF712FD03B05DF804FB000007B54388DE
:104F40000A2B08D0502B09D1094B1B683BB103B089
:104F50005DF804EB1847FFF7E5FF06E00023009338
:104F60001A466FF07701FFF7F7FC03B05DF804FB1A
:104F7000D8E3032038B5104C104D2368AB42104BDA
:104F80000CBF012200221A7002D0FFF7BFFF25607C
:104F9000FFF7A8FB044601F0F7FE0A4B13B12046C9
:104FA000AFF3008000210748FFF750FD00210648BD
:104FB000BDE83840FFF7C6BC00F403201E1C279A4A
:104FC000DCE30320000000003D4F0D00704700208F
:104FD000704710B51021044600F06CFF204610BD4C
:104FE00008B508B1FFF7F5FF08BD0022026010B553
:104FF0004FF69C728280B1F9044084808A800268F6
:105000000C6804600A6010BD10B504460068FFF724
:105010002DFD204610BD38B5C468F4B12378022BAD
:1050200003D104F10C00FFF7EFFF656835B12846A6
:10503000FFF717FF1021284600F03CFFA56835B1A7
:105040002846FFF70EFF1021284600F033FF2046C8
:105050001421BDE8384000F02DBF38BD10B588B030
:1050600004466846FFF7E7FD694604A8FFF705FE1A
:1050700004A8A047044604A8FFF796FD6846FFF77A
:1050800093FD204608B010BDF0B5102485B007464A
:105090000E46154600212246684601F06CFE0022AD
:1050A00069461046ADF80040029703960195FFF758
:1050B000B5FC05B0F0BD13B5044691E8050000232A
:1050C0004B600B602060626001A801930093FFF7C2
:1050D000BBF9204602B010BDF7B50C4602AD54F83E
:1050E000043B45F8083D06460F4601A82146FFF758
:1050F000E9FD29463046FFF7DEFF01A8FFF7A4F9D6
:105100002046FFF7A1F93846082100F0D3FE3046CB
:1051100003B0F0BD38B500230446036010200D46EF
:10512000FEF7BBFF28B1012343608360024B03609D
:10513000C5602060204638BD7C700D00826810B5C7
:105140000AB900F0CAFEC368BDE81040184708B5A8
:10515000006800F11001FFF7F1FF08BD826810B58B
:105160000AB900F0BAFEC368BDE81040184708B598
:10517000006800F11001FFF7F1FF08BD38B500230A
:1051800083608B6804460D462BB102229847EB687A
:10519000E360AB68A360204638BD0000F0B589B07D
:1051A00004686846FFF721FF00238DF808304FF0B0
:1051B0000202D4E84F3F002B03D1C4E8412F00295D
:1051C000F7D102D08DF8083063E014F10C0503D05C
:1051D00069462846FFF709FFBFF35F8F012363701D
:1051E000002004F10803BFF35F8F53E8006F43E82A
:1051F0000002002AF9D1BFF35F8F002E49D0FFF7DC
:1052000091FB20B129463046FFF798FF3AE031463E
:1052100002A8FFF7B3FFE068B4F9105008B101F03D
:10522000E5FD06901020ADF81C50FEF736FF054650
:10523000E8B1002787601820FEF72FFF044688B1E9
:105240000146876002A8FFF71BFE049BA268A360CB
:10525000059B049206A9E268E36004F11000059240
:10526000FFF7C3FE0D4BEB600D4B2C60AB6006A847
:10527000FFF7CAFE02A8FFF7F4FD002229460948FD
:10528000FFF758FB3046FFF7ECFD1021304600F0E9
:1052900011FE6846FFF7B8FE09B0F0BD4F510D0092
:1052A000C5530D003D590D002DE9F04F8BB006465A
:1052B0000F46904699469DF850A0FFF7B7FB07AD03
:1052C000834630BB4FF62E73059005A92846ADF8EE
:1052D0001830FFF78AFE1420FEF7DFFE044658B1AF
:1052E0000223037001234370C0F804B0C0F808B073
:1052F00029460C30FFF779FE3046214640F8044B32
:10530000FFF708FF2846FFF77FFE05A8FFF77CFEA2
:1053100052E000240C2314206C60AC600793FEF76D
:10532000BCFE014618B1047044704460846004A857
:105330000391FFF7EFFE224B08930820FEF7ADFE26
:10534000044628B1039B40F8043B04A9FFF7BAFCCC
:1053500000955FFA8AF34A46414638460994FFF7BA
:105360006DFB20B9039B5B7803F0FF0283B1039BC5
:10537000059304A906A8FFF7A5FC05A93046FFF789
:105380009AFE06A8FFF760F804A8FFF75DF813E09F
:105390004FF69C7305A903A80592ADF81830FFF7E6
:1053A000FDFE05A8FFF730FE05A80999FFF794FE5A
:1053B00006A8FFF749F8DAE730460BB0BDE8F08FF2
:1053C00035550D00022AF8B5044606D0032A17D039
:1053D000012A22D10B6803601FE018200E68FEF737
:1053E0005CFE054650B13146FFF7C8FE3069B6F99C
:1053F000147008B101F0FAFC2861AF8225600CE05E
:10540000046854B104F11000FFF7FEFD2046FFF7D9
:1054100028FD1821204600F04DFD0020F8BD38B5CC
:10542000002383608B6804460D462BB10222984707
:10543000EB68E360AB68A360204638BD022A70B514
:10544000044606D0032A11D0012A18D10B68036044
:1054500015E014200E68FEF720FE054620B1314607
:10546000FFF7DDFF337C2B74256008E0046834B15E
:105470002046FFF7F6FC1421204600F01BFD00201B
:1054800070BD0000F0B5002387B00C46BFF35F8FFE
:1054900050E8006F40E80032002AF9D1BFF35F8F77
:1054A000002E3FD01846FFF73DFA074620B12146AF
:1054B0003046FFF753FE2EE0314601A8FFF7AFFF5D
:1054C00023788DF814301020FEF7E7FD0546D0B1A3
:1054D00087601420FEF7E1FD044678B1876001463D
:1054E00001A8FFF7CDFC039BA268A360049B039275
:1054F000E268E3609DF81430049223740A4BEB6079
:105500000A4B2C60AB6001A8FFF7ABFC00222946D8
:105510000748FFF70FFA3046FFF7A3FC102130468B
:1055200000F0C8FC07B0F0BD6F510D003D540D00F8
:105530003D590D0030B585B004460D46684611460C
:10554000FFF7CAFD7CB124B228460DB101F04EFC34
:10555000029002A96846ADF80C40FFF71FFE02A8B2
:10556000FFF752FD1DE000988DF808404FF0010252
:10557000D0E84F3FA34203D1C0E8412F0029F7D123
:1055800002D08DF808300CE010F10C014FF001034F
:1055900018BF0373BFF35F8F043000F8033CFFF7BD
:1055A00071FF01A8FEF750FF05B030BD704710B580
:1055B0001821044600F07EFC204610BDF0B5037DA6
:1055C000062B8DB00E4600F104074FF0000402D008
:1055D00000F1080518E00CAD394605F8304D2F23D1
:1055E0002A460A20FFF7B6F8284601F01AFC33686D
:1055F0000246DB682946304698470FE024B12E2149
:105600003046FFF7A5FB044415F8011D0A22304679
:10561000FFF7B7FBBD420444F0D120460DB0F0BD0A
:1056200010B5054B0446112240F8043B002101F05F
:10563000A2FB204610BD00BF98700D000346074A2C
:1056400010B543F8042B01F1100251F8044B43F854
:10565000044B9142F9D10A781A7010BD98700D0070
:1056600010B59DF8084044EA032343EA024242EAA7
:10567000016104234160037510BD37B50D788B7847
:105680004A78C97800912946FFF7EAFF03B030BD98
:1056900041747047704708B50021007CFFF71AF984
:1056A00030EA200028BF4FF0FF3008BD08B50121C7
:1056B000007CFFF70FF930EA200028BF4FF0FF30E1
:1056C00008BD08B5007CFFF7FDF820EAE07008BDD2
:1056D00008B5007CFFF7EEF820EAE07008BD007C1A
:1056E000FFF708B910B51421044600F0E3FB20468B
:1056F00010BD38B50446007C0D46FFF7E3F80028DE
:1057000001DC607C28B12946207CFFF7EBF820EA19
:10571000E07038BD10B50446002363604FF47A731F
:10572000A360054B2360012308462174637411466E
:10573000FFF7B0F8204610BDAC700D000022007CD1
:10574000FFF7B0B810B514220446002101F013FB96
:10575000204610BD30B50E4D87B001A8FFF7F2FF0F
:10576000296811F0010410D12846FEF79CFC60B1B5
:1057700001AA21460748FFF7CDFF2846FEF798FC0F
:10578000054A0649034800F087FB024807B030BDD0
:10579000E0E30320E4E3032050E3032095560D00EB
:1057A000002211464068FFF7F9B800221146406810
:1057B000FFF714B9002211464068FFF71FB9002215
:1057C0004068FFF713B9002281F001014068FFF73C
:1057D000FDB800231A4619464068FFF7EFB80023CA
:1057E0001A4619464068FFF7E1B8002211464068A2
:1057F000FFF7C4B8002202214068FFF7C7B80023B2
:105800001A464068FFF7B2B838B5084C28252A4632
:105810000021204601F0AFFA4FF0FF336360044BE4
:10582000258004225A60034A1A6038BD00E4032030
:10583000F8E30320DC700D0070474174704708B531
:10584000007CFEF7C7FF20EAE07008BD08B5007CC9
:10585000FEF798FF20EAE07008BD08B5007CFEF76F
:10586000A1FF30EA200028BF4FF0FF3008BD08B587
:10587000007CFEF78FFF30EA200028BF4FF0FF309A
:1058800008BD007CFEF796BF10B51421044600F059
:1058900011FB204610BD70B5457C04460E4625B967
:1058A000007CFEF797FF002805DD3146207CBDE82F
:1058B0007040FEF75FBF284670BD000010B504467B
:1058C00008461146002262604FF47A72A260054ACF
:1058D00022600122207462741A46FEF743FF2046BC
:1058E00010BD00BF10710D00007CFEF76BBF000003
:1058F00038B50C4D296811F0010411D12846FEF786
:10590000D2FB68B1084A094B09482146FFF7D6FF88
:105910002846FEF7CDFB074A0749054800F0BCFAC8
:10592000034838BDC0E40320C4E403203CE4032062
:1059300028E4032050E3032039580D0010B5836894
:1059400004460BB900F0C9FAC3689847A3681BB1B5
:10595000032221462046984720461021BDE81040EA
:1059600000F0A8BA7047F8B5064615460C468F18E1
:10597000BC4206D0336814F8011B9B683046984738
:10598000F6E72846F8BD0022007CFEF743BF002161
:10599000007CFEF747BF0021007CFEF74BBF0021D3
:1059A000007CFEF74FBF0021007CFEF753BF10B50F
:1059B0001421044600F07EFA204610BD10B50446BE
:1059C000002363604FF47A73A360044B217408468C
:1059D00023601146FEF74EFF204610BD40710D00BA
:1059E00000231A461946007CFEF7FCBE70B50C4633
:1059F00086B0142506462A46002101A801F0BBF90D
:105A000023788DF8083063680393E36804930022D9
:105A1000237A307CADF8045001A90593FEF732FFDC
:105A200006B070BD1FB500338DF800104FF0640153
:105A3000039118BF0123694601928DF80830FFF7E2
:105A4000D5FF05B05DF804FB0022007CFEF7D2BE56
:105A5000C9B2FFF7F9BF0022007CFEF7D3BE0021D8
:105A6000007CFEF7FFBE002211464068FEF7B6BF7D
:105A7000002211464068FEF7C1BF00224068FEF7D1
:105A8000B5BF002281F001014068FEF79FBF0023EF
:105A90001A4601214068FEF791BF00231A461946B5
:105AA0004068FEF783BF002211464068FEF776BFCC
:105AB000002211464068FEF761BF002202214068C3
:105AC000FEF764BF00231A464068FEF74FBF38B5A3
:105AD000054688B104684CB1A3681BB10322214676
:105AE000204698471021204600F0E4F9284614216A
:105AF000BDE8384000F0DEB938BD10B103685B681E
:105B00001847704710B503680446BBB15868FEF7E4
:105B1000F9FD78B923685A7C12B95868FEF7FAFD86
:105B200023685868FEF7FEFD20680023236028B133
:105B3000FFF7CDFF206808B1FFF7C9FF204610BD71
:105B400038B50446D0F8C40108B1FEF7AAFAD4F873
:105B5000C00108B1FEF7F6FDD4F8BC5135B12846B6
:105B6000FFF7D0FF0421284600F0A4F9206808B10F
:105B7000FFF7C3FF204638BD10B5044B044640F87C
:105B8000083BFFF7DDFF204610BD00BF68710D0028
:105B900038B50E4C0E4B23600025022304F5E4704B
:105BA0006360A560C4F8C451C4F8C851FEF7C2FDD3
:105BB000084BC4F8CC5184F8D05123602046064AE3
:105BC0000649BDE8384000F067B900BF48E503204A
:105BD0009C710D0068710D0050E30320795B0D008E
:105BE00000231A464068FEF7C1BE00220221406829
:105BF000FEF7CCBE002211464068FEF7BFBE002271
:105C000011464068FEF7CABE00231A46194640688E
:105C1000FEF7CCBE00231A4619464068FEF7CEBEFA
:105C2000002281F001014068FEF7D0BE00224068EA
:105C3000FEF7DCBE002211464068FEF7DFBE002200
:105C400011464068FEF7CABE2DE9F043002495B026
:105C500016460D460746FFF7E3FC214620220CA816
:105C6000009401F088F840230C9321466B460CAA5F
:105C70003046FEF7EFFC0446002844D102460121DD
:105C80006868FEF78BFE0221804622466868FEF7B0
:105C900085FE009E81462146002E34D0002932D157
:105CA0007368022B02D00A2B09D02AE0B8F1000F4A
:105CB00027D0716938460431FFF7DFFC20E0B9F1E5
:105CC000000F1ED07469112201A801F054F80623B8
:105CD0008DF8143001AD04F10803183418685968C0
:105CE0002A4603C20833A3421546F7D101A906A8E4
:105CF00007ADFFF7A3FC0FCD3C1D0FC42B6823702D
:105D00000121F669C8E70098FEF79CFC384615B0FB
:105D1000BDE8F083024B034A1A6000225A607047C4
:105D20001CE703209C710D0070B5184E316811F00E
:105D3000010504460AD13046FEF7B5F930B12946CF
:105D40001348FEF709FF3046FEF7B2F91048FEF798
:105D50000DFF28B1A4F10B03022B01D8002070BD68
:105D600000F074F8FFF77BFE08B1012CF6D9FFF7BD
:105D7000BFFDFFF7B9FD18B1A4F10903012BEDD95F
:105D8000232C8CBF0020012070BD00BF24E703201E
:105D900028E70320232838B504460D460AD8FF29F2
:105DA00008D0FFF7C1FF28B129462046BDE838409A
:105DB000FEF768BC38BD38B504460D46FEF76AFCF0
:105DC000FF2810D0062804D84D2323FA00F0C3077B
:105DD00009D42046FFF7A8FF28B129462046BDE890
:105DE0003840FEF75FBC38BD0D2810B504469CBF97
:105DF0000E34A4B22046FFF797FF50B1032120468E
:105E0000FEF738FC032804D12046BDE81040FEF719
:105E100051BC002010BD000070B5044614252A4670
:105E2000094E002100F0A7FF258020253146A560FE
:105E30002561284600F040F831466060284600F0B1
:105E40003BF8E060204670BDC8710D0030B50E4DC6
:105E5000296811F0010487B013D12846FEF723F911
:105E600078B101A8FFF7D8FF01AA21460748FFF73C
:105E7000A5FD2846FEF71CF9054A0649034800F02F
:105E80000BF8024807B030BD34E7032038E70320A1
:105E900050E3032065590D000B460146184600F0FB
:105EA00051BF0000024B1868BFF35F8F704700BFFF
:105EB0004CE70320FEF7F3B800F000B810B5002857
:105EC00014BF044601242046FEF7C8FD20B9FFF7A1
:105ED000E9FF08B18047F6E710BD08B5FEF7E6FD1B
:105EE000184B1A68D1075CBF01221A60164B1A685A
:105EF000D2075CBF01221A60144B1A68D0075CBF3E
:105F000001221A60124B1A68D1075CBF01221A6085
:105F1000104B1A68D2075CBF01221A600E4B1A6838
:105F2000D0075CBF01221A600C4B1A68D1075CBF16
:105F300001221A600A4B1A68D2075CBF01221A605C
:105F4000704700BF6CE7032068E7032064E7032085
:105F500060E703205CE7032058E7032054E70320B1
:105F600050E70320244B1A68D0075CBF01221A6057
:105F7000224B1A68D1075CBF01221A60204B1A68B5
:105F8000D2075CBF01221A601E4B1A68D0075CBFA3
:105F900001221A601C4B1A68D1075CBF01221A60EB
:105FA0001A4B1A68D2075CBF01221A60184B1A6894
:105FB000D0075CBF01221A60164B1A68D1075CBF7C
:105FC00001221A60144B1A68D2075CBF01221A60C2
:105FD000124B1A68D0075CBF01221A60104B1A6876
:105FE000D1075CBF01221A600E4B1A68D2075CBF52
:105FF00001221A60704700BF9CE7032098E7032046
:1060000094E7032090E703208CE7032088E7032030
:1060100084E7032080E703207CE7032078E7032060
:1060200074E7032070E70320244B1A68D0075CBF95
:1060300001221A60224B1A68D1075CBF01221A6044
:10604000204B1A68D2075CBF01221A601E4B1A68E7
:10605000D0075CBF01221A601C4B1A68D1075CBFD5
:1060600001221A601A4B1A68D2075CBF01221A601B
:10607000184B1A68D0075CBF01221A60164B1A68C9
:10608000D1075CBF01221A60144B1A68D2075CBFAB
:1060900001221A60124B1A68D0075CBF01221A60F5
:1060A000104B1A68D1075CBF01221A600E4B1A68A8
:1060B000D2075CBF01221A60704700BFCCE7032003
:1060C000C8E70320C4E70320C0E70320BCE70320A0
:1060D000B8E70320B4E70320B0E70320ACE70320D0
:1060E000A8E70320A4E70320A0E70320184B1A68C1
:1060F000D1075CBF01221A60164B1A68D2075CBF39
:1061000001221A60144B1A68D0075CBF01221A6082
:10611000124B1A68D1075CBF01221A60104B1A6833
:10612000D2075CBF01221A600E4B1A68D0075CBF11
:1061300001221A600C4B1A68D1075CBF01221A6059
:106140000A4B1A68D2075CBF01221A60704700BF71
:10615000ECE70320E8E70320E4E70320E0E703207F
:10616000DCE70320D8E70320D4E70320D0E70320AF
:106170002DE9F0432DED028B8BB055EC104B00F068
:1061800057F8294BB0EE408AF0EE608A93F9006030
:10619000731C12D022462B462046294600F06CFD87
:1061A000074650B94FF000084FF000092046294635
:1061B00042464B4600F038FD40B9B0EE480AF0EEDA
:1061C000680A0BB0BDEC028BBDE8F083174B089753
:1061D0000122CDE90445CDE902458DE80C00B6B1B8
:1061E00042464B464046494600F0D6FB022ECDE9DA
:1061F00006010ED1FEF76AFC21230360089B73B9E8
:106200009DED060B0BB0BDEC028BBDE8F083CDE934
:106210000689684600F0DCF80028EFD1EAE7FEF7CF
:1062200055FC089B0360EBE7E8E20320CC710D000E
:106230002DE9F041654955EC104B0E462940B1421D
:1062400000F09780002D2B4610EE102A74DD2F15DC
:106250007FD0A7F2FF37C3F31303F90743F480138A
:1062600065D403EBD27100260B447F105200B64672
:1062700016204FF400110EEB01049C424FEAD27538
:106280004FEA420203DC1B1B04EB010E0E440138F3
:1062900005EB43034FEA5101EDD1844620244FF032
:1062A000004109E020D003EBD275013C4FEA5101D7
:1062B0002B444FEA420220D09E4501EB0C05F1DA57
:1062C000002D05EB010C09DBF0469542CEEB0303F4
:1062D00000D9013B521B0844C646E4E7BCF1000F5D
:1062E000F2DB0EF10108F0E795421ED8002D05EB18
:1062F000010C50DB98460023ECE7134304D0421C0A
:106300004DD000F00103184440087110F30701F16B
:106310007F5101F5001148BF40F0004001EB0753E9
:10632000024643EC102BBDE8F0817346BBE75B00EF
:1063300003EBD273520094E725F00041214328D0AB
:10634000ADBB2F46D30A153F5205002BFAD0DD0214
:1063500028D4002100E001465B00DC0201F10100CD
:10636000F9D5C0F1200422FA04F423437F1A8240B5
:106370006FE710EE102A2B4610EE100A294600F0A7
:10638000E1F922462B4600F02BF841EC100BBDE85A
:10639000F081BDE8F081BCF1000FA2DAAAE7013676
:1063A0002046B2E720244FF0FF310020DBE710EE5B
:1063B000102A2B462046294600F010F802460B46CC
:1063C00000F0EAFA41EC100BBDE8F0810000F07F2C
:1063D0000020704781F0004102E000BF83F00043DD
:1063E00030B54FEA41044FEA430594EA050F08BF70
:1063F00090EA020F1FBF54EA000C55EA020C7FEA34
:10640000645C7FEA655C00F0E2804FEA5454D4EBB0
:106410005555B8BF6D420CDD2C4480EA020281EA7A
:10642000030382EA000083EA010180EA020281EAB2
:106430000303362D88BF30BD11F0004F4FEA013104
:106440004FF4801C4CEA113102D0404261EB410113
:1064500013F0004F4FEA03334CEA133302D0524299
:1064600063EB430394EA050F00F0A780A4F1010455
:10647000D5F1200E0DDB02FA0EFC22FA05F280188F
:1064800041F1000103FA0EF2801843FA05F3594175
:106490000EE0A5F120050EF1200E012A03FA0EFCF4
:1064A00028BF4CF0020C43FA05F3C01851EBE3711E
:1064B00001F0004507D54FF0000EDCF1000C7EEB3B
:1064C00000006EEB0101B1F5801F1BD3B1F5001F79
:1064D0000CD349085FEA30004FEA3C0C04F1010498
:1064E0004FEA445212F5800F80F09A80BCF1004FC1
:1064F00008BF5FEA500C50F1000041EB045141EA43
:10650000050130BD5FEA4C0C404141EB010111F443
:10651000801FA4F10104E9D191F0000F04BF0146EE
:106520000020B1FA81F308BF2033A3F10B03B3F1CC
:1065300020020CDA0C3208DD02F1140CC2F10C025C
:1065400001FA0CF021FA02F10CE002F11402D8BFBA
:10655000C2F1200C01FA02F120FA0CFCDCBF41EA86
:106560000C019040E41AA2BF01EB0451294330BD55
:106570006FEA04041F3C1CDA0C340EDC04F1140432
:10658000C4F1200220FA04F001FA02F340EA030009
:1065900021FA04F345EA030130BDC4F10C04C4F14F
:1065A000200220FA02F001FA04F340EA030029462F
:1065B00030BD21FA04F0294630BD94F0000F83F479
:1065C000801306BF81F480110134013D4EE77FEA5C
:1065D000645C18BF7FEA655C29D094EA050F08BFA8
:1065E00090EA020F05D054EA000C04BF1946104689
:1065F00030BD91EA030F1EBF0021002030BD5FEACD
:10660000545C05D14000494128BF41F0004130BDF4
:1066100014F580043CBF01F5801130BD01F0004548
:1066200045F0FE4141F470014FF0000030BD7FEABB
:10663000645C1ABF194610467FEA655C1CBF0B46B6
:10664000024650EA013406BF52EA033591EA030FCD
:1066500041F4002130BD00BF90F0000F04BF0021C5
:10666000704730B54FF4806404F132044FF00005F8
:106670004FF0000150E700BF90F0000F04BF002171
:10668000704730B54FF4806404F1320410F00045D7
:1066900048BF40424FF000013EE700BF42004FEAD2
:1066A000E2014FEA31014FEA02701FBF12F07F434F
:1066B00093F07F4F81F06051704792F0000F14BF4C
:1066C00093F07F4F704730B54FF4607401F0004590
:1066D00021F0004120E700BF50EA010208BF7047E7
:1066E00030B54FF000050AE050EA010208BF7047DC
:1066F00030B511F0004502D5404261EB41014FF445
:10670000806404F132045FEA915C3FF4DCAE4FF048
:1067100003025FEADC0C18BF03325FEADC0C18BF2F
:10672000033202EBDC02C2F1200300FA03FC20FA80
:1067300002F001FA03FE40EA0E0021FA02F11444CD
:10674000C1E600BF70B54FF0FF0C4CF4E06C1CEAE2
:1067500011541DBF1CEA135594EA0C0F95EA0C0F57
:1067600000F0DEF82C4481EA030621EA4C5123EACA
:106770004C5350EA013518BF52EA033541F48011F9
:1067800043F4801338D0A0FB02CE4FF00005E1FBAC
:1067900002E506F00042E0FB03E54FF00006E1FBF6
:1067A00003569CF0000F18BF4EF0010EA4F1FF0439
:1067B000B6F5007F64F5407404D25FEA4E0E6D4179
:1067C00046EB060642EAC62141EA55514FEAC5208A
:1067D00040EA5E504FEACE2EB4F1FD0C88BFBCF506
:1067E000E06F1ED8BEF1004F08BF5FEA500E50F1B7
:1067F000000041EB045170BD06F0004646EA01017D
:1068000040EA020081EA0301B4EB5C04C2BFD4EBAE
:106810000C0541EA045170BD41F480114FF0000EA7
:10682000013C00F3AB8014F1360FDEBF002001F015
:10683000004170BDC4F10004203C35DA0C341BDC8F
:1068400004F11404C4F1200500FA05F320FA04F061
:1068500001FA05F240EA020001F0004221F0004195
:1068600010EBD37021FA04F642EB06015EEA430E08
:1068700008BF20EAD37070BDC4F10C04C4F1200538
:1068800000FA04F320FA05F001FA04F240EA0200EB
:1068900001F0004110EBD37041F100015EEA430EBC
:1068A00008BF20EAD37070BDC4F1200500FA05F2DC
:1068B0004EEA020E20FA04F301FA05F243EA02035B
:1068C00021FA04F001F0004121FA04F220EA02006A
:1068D00000EBD3705EEA430E08BF20EAD37070BDB0
:1068E00094F0000F0FD101F00046400041EB010190
:1068F00011F4801F08BF013CF7D041EA060195F072
:10690000000F18BF704703F00046520043EB03032B
:1069100013F4801F08BF013DF7D043EA0603704718
:1069200094EA0C0F0CEA135518BF95EA0C0F0CD023
:1069300050EA410618BF52EA4306D1D181EA030169
:1069400001F000414FF0000070BD50EA410606BF63
:106950001046194652EA430619D094EA0C0F02D1A8
:1069600050EA013613D195EA0C0F05D152EA0336ED
:106970001CBF104619460AD181EA030101F000410B
:1069800041F0FE4141F470014FF0000070BD41F054
:10699000FE4141F4780170BD70B54FF0FF0C4CF42E
:1069A000E06C1CEA11541DBF1CEA135594EA0C0F4D
:1069B00095EA0C0F00F0A7F8A4EB050481EA030E9A
:1069C00052EA03354FEA013100F088804FEA033381
:1069D0004FF0805545EA131343EA12634FEA02224F
:1069E00045EA111545EA10654FEA00260EF0004110
:1069F0009D4208BF964244F1FD0404F5407402D262
:106A00005B084FEA3202B61A65EB03055B084FEAF2
:106A100032024FF480104FF4002CB6EB020E75EBEF
:106A2000030E22BFB61A754640EA0C005B084FEA17
:106A30003202B6EB020E75EB030E22BFB61A754694
:106A400040EA5C005B084FEA3202B6EB020E75EBDF
:106A5000030E22BFB61A754640EA9C005B084FEA57
:106A60003202B6EB020E75EB030E22BFB61A754664
:106A700040EADC0055EA060E18D04FEA051545EA53
:106A800016754FEA06164FEAC30343EA52734FEAFC
:106A9000C2025FEA1C1CC0D111F4801F0BD141EA75
:106AA00000014FF000004FF0004CB6E711F4801FDA
:106AB00004BF01430020B4F1FD0C88BFBCF5E06FBA
:106AC0003FF6AFAEB5EB030C04BFB6EB020C5FEACA
:106AD000500C50F1000041EB045170BD0EF0004E1F
:106AE0004EEA113114EB5C04C2BFD4EB0C0541EA51
:106AF000045170BD41F480114FF0000E013C90E64E
:106B000045EA060E8DE60CEA135594EA0C0F08BF11
:106B100095EA0C0F3FF43BAF94EA0C0F0AD150EA10
:106B200001347FF434AF95EA0C0F7FF425AF1046A3
:106B300019462CE795EA0C0F06D152EA03353FF4CB
:106B4000FDAE1046194622E750EA410618BF52EA48
:106B500043067FF4C5AE50EA41047FF40DAF52EA1C
:106B600043057FF4EBAE12E74FF0FF3C06E000BFB9
:106B70004FF0010C02E000BF4FF0010C4DF804CDC6
:106B80004FEA410C7FEA6C5C4FEA430C18BF7FEA86
:106B90006C5C1BD001B050EA410C0CBF52EA430CB4
:106BA00091EA030F02BF90EA020F0020704710F134
:106BB000000F91EA030F58BF994208BF90422CBFC3
:106BC000D8176FEAE37040F0010070474FEA410CBC
:106BD0007FEA6C5C02D150EA013C07D14FEA430CDA
:106BE0007FEA6C5CD6D152EA033CD3D05DF8040B4B
:106BF000704700BF8446104662468C46194663467D
:106C000000E000BF01B5FFF7B7FF002848BF10F153
:106C1000000F01BD4DF808EDFFF7F4FF0CBF012098
:106C200000205DF808FB00BF4DF808EDFFF7EAFF14
:106C300034BF012000205DF808FB00BF4DF808EDCF
:106C4000FFF7E0FF94BF012000205DF808FB00BFC4
:106C50004DF808EDFFF7CEFF94BF012000205DF84E
:106C600008FB00BF4DF808EDFFF7C4FF34BF01205B
:106C700000205DF808FB00BF4FEA410C7FEA6C5C26
:106C800002D150EA013C0AD14FEA430C7FEA6C5C26
:106C900002D152EA033C02D14FF0000070474FF09E
:106CA000010070474FEA4102B2F1E04324BFB3F55F
:106CB000001CDCF1FE5C0DD901F0004C4FEAC00273
:106CC0004CEA5070B2F1004F40EB830008BF20F057
:106CD0000100704711F0804F21D113F13872BCBF11
:106CE00001F00040704741F480114FEA5252C2F166
:106CF0001802C2F1200C10FA0CF320FA02F018BFAF
:106D000040F001004FEAC1234FEAD32303FA0CFC01
:106D100040EA0C0023FA02F34FEA4303CCE77FEA90
:106D2000625307D150EA01331EBF4FF0FE4040F4DA
:106D30004000704701F0004040F0FE4040F4000089
:106D4000704700BF10B5054C13462CB10A460146EA
:106D50000220AFF3008010BD204610BD00000000EF
:106D600010B5431E0A44914204D011F8014B03F8B8
:106D7000014FF8E710BD02440346934202D003F8E6
:106D8000011BFAE77047000038B5124B1C68A36B73
:106D90000546D3B91820FDF761FE43F20E33A06318
:106DA00003804AF6CD33438041F2342383804EF290
:106DB0006D63C3804DF6EC630381052343810B2390
:106DC000838101220023C0E90423A36B00221D61FB
:106DD0005A6138BD4CE3032010F8012B11F8013B38
:106DE000012A28BF9A42F7D0D01A7047024B0146B9
:106DF000186800F003B800BF4CE3032070B50646E6
:106E000008460C4600F00DF8451C29463046FDF7B3
:106E100055FE064618B12A462146FFF7A1FF304627
:106E200070BD034613F8012B002AFBD1181A013854
:106E30007047000021400D005D400D0089400D00AD
:106E40008D400D00000000006F6E006F66660054FC
:106E500072616E736D697373696F6E2062656769C5
:106E60006E2E2E2E0077726974696E67202D202594
:106E7000642073756241646472657373007772692C
:106E800074696E67202D202564206461746100544C
:106E900072616E736D697373696F6E20737563636E
:106EA00065737366756C21005472616E736D6973DE
:106EB00073696F6E206661696C65642E0041732092
:106EC000576972652E656E645472616E736D697375
:106ED00073696F6E2072657475726E732061206EB7
:106EE0006F6E2D7A65726F2076616C756520692EE4
:106EF000652E2C20256400636F6E7461696E657267
:106F000057656967687400537472696E675765697D
:106F10006768740064756D70737465722D6C6F6151
:106F200064696E67006C656400256600EA5F59401D
:106F3000B9CA5F3E48C791BF0000000000000000D2
:106F40003B4B0D00314B0D00274B0D001D4B0D0031
:106F5000114B0D00054B0D00F94A0D00F14A0D00D3
:106F6000E74A0D00DD4A0D00495C0D006261756461
:106F70000053657269616C0053657269616C310020
:106F80007479706500706172616D00636D64006991
:106F90006400686E64007374726D0066696C7400DE
:106FA0006C766C0061646448616E646C657200723A
:106FB000656D6F766548616E646C657200656E75AF
:106FC0006D48616E646C657273004A534F4E537422
:106FD0007265616D4C6F6748616E646C65720061CB
:106FE000707000253031307520005D20002C2000AD
:106FF00028293A2000205B00636F6465203D200053
:1070000025690064657461696C73203D20000D0A78
:10701000006C6E00666E00636F6465006465746189
:10702000696C006E6F6E6500747261636500696EF5
:10703000666F007761726E006572726F72007061C8
:107040006E696300616C6C005A00252B3033643A22
:10705000253032750025592D256D2D256454254880
:107060003A254D3A2553257A0061736374696D653D
:10707000000000000000000000000000CD4F0D00E7
:10708000D34F0D0017500D00E14F0D00CF4F0D00F5
:107090000000000000000000BD550D00AD550D00C2
:1070A000AF550D00000000000000000095560D00D7
:1070B000E5560D00F3560D00FD4C0D00D1560D00A8
:1070C00097560D00AD560D00DF560D00C3560D004E
:1070D00091560D000000000000000000FF570D0059
:1070E000F5570D00EB570D00A1570D00DF570D00B0
:1070F000D3570D00C7570D00BF570D00B5570D00F2
:10710000AB570D00495C0D000000000000000000BE
:1071100039580D0089580D0097580D00FD4C0D0091
:107120004D580D006F580D005B580D0083580D0031
:107130003B580D003F580D0000000000000000000B
:1071400065590D00AF590D0087590D0067590D00A5
:107150008F590D0097590D009F590D00A7590D002B
:107160000000000000000000C55A0D00BB5A0D00D1
:10717000B15A0D00A75A0D009B5A0D008F5A0D00F1
:10718000835A0D007B5A0D00715A0D00675A0D008D
:10719000495C0D000000000000000000E15B0D00F4
:1071A000EB5B0D00F55B0D00FF5B0D00095C0D0056
:1071B000155C0D00215C0D002D5C0D00355C0D0093
:1071C0003F5C0D00495C0D0000000000737172749B
:1071D00000000000000000000000000000000000AF
:1071E000000000000000000000000000000000009F
:1071F000000000000000000000000000000000008F
:10720000000000000000000000000000000000007E
:10721000000000000000000000000000000000006E
:10722000000000000000000000000000000000005E
:10723000000000004300000001460D00454B0D001A
:10724000754B0D00D54C0D00394E0D00494E0D000B
:10725000A14E0D0009580D00915B0D00155D0D004C
:10726000E15E0D00655F0D0029600D00ED600D0011
:04727000000000001A
:1072740069700D000100000000000000D4710D00D1
:10728400F4710D0014720D000000000000000000F5
:10729400000000000000000034720D000000000037
:1072A40000000000000000000000000000000000DA
:1072B40000000000000000000000000000000000CA
:1072C40000000000000000000000000000000000BA
:0C72D4000000000000000000ECE20320BD
:1072E000FFFFFFFF00000102030405060708090A6B
:1072F0000B0C0D0E0F101112131415161718191A66
:087300001B1C1D1E1F202800AC
:04730800785634126D
:04000003D0004020C9
:00000001FF
