:02000002D0002C
:1040000000400D00D87D0D00000006000D000501E8
:084010000401E80500000000B6
:04401800B0780D006F
:1040200009480A49884208B505D0094A824202D0A7
:10403000121A03F0DDFB0748074A0021121A03F0A9
:10404000E2FB014808BD00BF3CDD0320447D0D00BC
:10405000A8DD0320A8DD0320F0E7032070B501F000
:104060003FFA074C074BE41AA40800251E46A54258
:1040700004D056F8253098470135F8E770BD00BFE9
:104080003C7D0D00047D0D0000F086BC08B500F0FD
:10409000E5FABDE8084001F0E5B901F023B801F008
:1040A00029B801F027B80078B0FA80F040097047CD
:1040B00001230370704738B50446006928B185684C
:1040C0000C2102F081F92846F8E7204638BD10B5EA
:1040D0000446006808B101F00DF8204610BD37B560
:1040E0009DF8184023438DF800303C23054601F02D
:1040F00065FB284603B030BD0368C9B29B6818470A
:1041000070B5064614460D4602F02AF9314601F014
:1041100029FF01F0A9FD294901F0CCF801F0A4FD27
:10412000274901F0DAF802F01BF92946FFF7E4FF0E
:1041300001F09AFD2B46234A002101F0F8F801F026
:1041400093FD1F4901F0C9F802F00AF92146FFF773
:10415000D3FF01F089FD23461B4A1C4C002101F0CE
:10416000E6F801F081FD164901F0B7F802F0F8F821
:10417000012101F0FAFE206028B901F075FD144913
:1041800001F098F810E001F06FFD124901F092F88B
:1041900001F06AFD0A4901F0A0F801F065FD23680D
:1041A0000D4A002101F0C3F801F05EFD044901F061
:1041B00094F8C820BDE8704001F006B9DC780D0025
:1041C0009C7A0D00F2780D000A790D0038E3032087
:1041D0001C790D0035790D004A790D002DE9F04F5D
:1041E0002DED028B054683B09A460C46934602F0AD
:1041F000B7F8294601F0B6FE02F0B2F83B21FFF70E
:104200007BFF02F0ADF8002101F0AFFE02F0A8F84C
:10421000E9B20E22012301F08FFE02F0A1F803683B
:104220005B699847804602F09BF803685B69984792
:1042300040EA082802F094F803685B69984707464B
:1042400002F08EF803685B69984740EA072702F09E
:1042500087F803685B699847064602F081F80368AF
:104260005B69984740EA062602F07AF803685B69C2
:104270009847054602F074F803685B69984740EA7E
:10428000052308EE103A02F06BF803685B69984763
:10429000054602F065F803685B69984740EA052522
:1042A00002F05EF803685B699847814602F058F8AF
:1042B00003685B69984740EA0922019202F050F8CE
:1042C00003685B699847814602F04AF803685B69B6
:1042D000984740EA092902F043F8012101F045FE20
:1042E000B8F5004FB4BFC8F10008C8F5803807EE34
:1042F000908ADFED4C6A4C4B019A1860B7F5004F7D
:10430000B8EEE77AB4BF7F42C7F5803727EE267A4A
:10431000B6F5004F07EE907AB4BF7642C6F5803608
:1043200084ED007AB8EEE77A07EE906A27EE267AF7
:10433000F8EEE77A84ED017A67EEA67A9FED3B7A94
:10434000C4ED027AB8EEC88AB5F5004FC8EE077A18
:10435000B4BF6D42C5F580356D42B2F5004FB4BFB4
:104360005242C2F58032B9F5004FB4BFC9F100091D
:10437000C9F5803901939FED2E7A77EE877A9FED0C
:104380002D7ACBED007A07EE905AF8EEE77AC7EE79
:10439000876A07EE902AF8EEE77ACAED006AC7EE60
:1043A000876A07EE909AF8EEE77ACAED016AC7EEDF
:1043B000876ACAED026AD4ED017AD4ED006A94ED01
:1043C000027A67EEA77AE6EEA67AE7EE077A17EEAC
:1043D000900A02F0ABFE41EC100B02F055F951ECE3
:1043E000100B03F0A7F9144A14491060019B144AFA
:1043F00004F10C00B1EC017AD4ED007A77EE877A03
:10440000E4EC017AB2EC017ADAED007A77EE877AA1
:10441000A042EAEC017AEDD1186803B0BDEC028B42
:10442000BDE8F08F0000803838E303200000AA4385
:10443000B81E12420000034328E20320D0780D008A
:10444000C4780D00000000002DE9F74F0C9C0D9F73
:104450000E9E90460025226850F804CB01EB050E15
:104460000EEB820ECEF800C0226858F804CB03EBA6
:10447000050E0EEB820E5035F02DCEF800C0EAD1BD
:104480003A68534D002A00F08480524F5248DFF8BA
:104490005091DFF85081DFED515AAC460022B3EE67
:1044A000046A01EB020E03EB020A5032E7EC015AF8
:1044B000E0EC015A01EB020BFEEC017A17ED017AF8
:1044C00050ED016A37EE877ADE4507ED017AFAECA6
:1044D000017A77EEA67A40ED017AEDD1C7EE066A51
:1044E000F02A87EE867AE9EC016AA8EC017AECEC16
:1044F000016AD6D1A86802F019FECDE9000168680A
:1045000002F014FE9DED001B41EC100B02F0BAF816
:104510002DA3D3E9002351EC100B02F05BFE03F056
:1045200009F93060A86802F001FECDE900012868B1
:1045300002F0FCFD9DED001B41EC100B02F0A2F817
:1045400021A3D3E9002351EC100B02F043FE03F04A
:10455000F1F87060286802F0E9FDCDE900016868B3
:1045600002F0E4FD9DED001B41EC100B02F08AF817
:1045700015A3D3E9002351EC100B02F02BFE03F03E
:10458000D9F8B06023680133132BC8BF0023236020
:1045900014E0236801EB83031B682B60236801EBA5
:1045A00083031B6D6B60236801EB8301D1F8A0309E
:1045B000AB6023680133236001233B6003B0BDE897
:1045C000F08F00BFAFF30080E79AD56194A94C400B
:1045D00094E003209CE303202CE303200000000070
:1045E00000E10320ECDE0320F8B580B20C4617682A
:1045F00015461E4601F082FE44F827000B480023B2
:10460000221F03604C3452F8041F0368A2420B447B
:104610000360F8D1296801311429A8BF002129605D
:104620000268142392FBF3F23260F8BDB4DD03207C
:1046300038B5046805467CB16368013B63605BB9CB
:10464000236820469B689847A368013BA3601BB979
:1046500023682046DB689847284638BD2DE9F04F8F
:10466000142487B0DFF810B3DFF810A38F4A904905
:10467000DFF80C93DFF80C838E4F8F4D8F4E5B4627
:104680000F20FFF7B1FF53468D4A8E490E20FFF7EA
:10469000ABFF4B468C4A8D491020FFF7A5FF4346E0
:1046A0008B4A8C491320FFF79FFF3B468A4A8B4970
:1046B0001220FFF799FF2B46894A8A491120FFF7FC
:1046C00093FF894B894A8A496820FFF787FD894B08
:1046D0003060894A89496920FFF780FD884B306046
:1046E0000193884E884B00937F4A884B88498048C5
:1046F0000296FFF7A9FE874B0293874B0193874BE6
:1047000000937C4A814B86497C48FFF79DFE013C23
:10471000A8D1DBF800208349834800F0F3FCDAF8E5
:1047200000208049814800F0EDFCD9F800207D4947
:104730007F4800F0E7FCD8F800207A497D4800F077
:10474000E1FC3A6877497C4800F0DCFC2A687B4D44
:1047500074497B4800F0D6FC2B78734A79498DF870
:10476000004004A8FFF7BBFC05A8FFF761FF43F674
:10477000982000F029FE2B786C4A73498DF8004090
:1047800004A8FFF7ACFC05A8FFF752FF43F69820FA
:1047900000F01AFE2B78664A6C498DF8004004A898
:1047A000FFF79DFC05A8FFF743FF43F6982000F0B4
:1047B0000BFE2B785F4A66498DF8004004A8FFF78E
:1047C0008EFC05A8FFF734FF43F6982000F0FCFDAF
:1047D0002B78594A5F498DF8004004A8FFF77FFC09
:1047E00005A8FFF725FF43F6982000F0EDFD2B7894
:1047F000534A59498DF8004004A8FFF770FC05A8FA
:10480000FFF716FF43F6982000F0DEFD306802F057
:104810008DFC02460B465148514900F073FC70680C
:1048200002F084FC02460B464E484D4900F06AFCFB
:10483000B06802F07BFC02460B464B48484900F04A
:1048400061FC2B78454A49498DF8004004A8FFF7E0
:1048500046FC05A8FFF7ECFE40F2DC5000F0B4FD8A
:104860002B78404A42498DF8004004A8FFF737FCF6
:1048700005A8FFF7DDFE40F2DC5000F0A5FD2B7827
:10488000394A3C498DF8004004A8FFF728FC05A8E8
:10489000FFF7CEFE40F2DC5000F096FD42F21070C1
:1048A00000F092FD07B0BDE8F08F00BFF8E00320F4
:1048B00020E10320B0DD0320E8DE032038E30320FD
:1048C000FCE0032070E10320CCE1032038E003206A
:1048D00018E10320D8E1032024E00320A8E003200E
:1048E0002CE2032040E3032004E0032028E003201F
:1048F00030E2032010E003202CE00320BCDE032084
:10490000A0E0032090E3032030E003203CE20320FA
:10491000CCDD0320C0E10320A4E0032034E0032029
:10492000F8DE032081790D00B8DD0320BDDD032012
:10493000FCDF0320D0E10320C8DE0320C8DD032014
:104940001CE0032084790D008A790D0090790D0018
:1049500096790D009C790D00A2790D0088E0032066
:10496000A8790D00E8DF0320F2DF0320AB790D000A
:10497000B3790D00BB790D003CE303201CE103205B
:10498000C4DD0320ACDD03200023022200F08ABB3B
:104990000023042200F086BB2DE9F04F85B001F022
:1049A00063F94FF4165101F053F901F0D9FC01F00D
:1049B000A1FA642000F008FD00226B216820FFF7B7
:1049C0009FFB00226B216920FFF79AFB0121022047
:1049D00001F06AFC0121022001F077FC864CDFF82F
:1049E0005CA2864BDFF858921A68DFF85882844F31
:1049F000844EDFF854B2844D2146504600F082FBCD
:104A0000824B21461A68484600F07CFB804B2146C9
:104A10001A68404600F076FB7E4B21461A683846FD
:104A200000F070FB7C4B21461A68304600F06AFBB0
:104A30007A4B21461A680024584600F063FB2B7815
:104A400077498DF80040524602A8FFF748FBDFF88F
:104A5000FCA103A8FFF7ECFD40F2DC5000F0B4FC31
:104A60002B788DF800404A46514602A8FFF737FBE5
:104A7000DFF8DC9103A8FFF7DBFD40F2DC5000F02B
:104A8000A3FC2B788DF800404246494602A8FFF768
:104A900026FBDFF8C08103A8FFF7CAFD40F2DC5017
:104AA00000F092FC2B788DF800403A46414602A86F
:104AB000FFF715FB5B4F03A8FFF7BAFD40F2DC5090
:104AC00000F082FC2B788DF800403246394602A86F
:104AD000FFF705FB544E03A8FFF7AAFD40F2DC5098
:104AE00000F072FC2B788DF800405A46314602A83F
:104AF000FFF7F5FA03A8FFF79BFD40F2DC5000F04A
:104B000063FC3E494648FFF73FFF40495046FFF7E8
:104B10003BFF3F49DFF840A14846FFF735FF3D49DD
:104B2000DFF838914046FFF72FFF3B49DFF830812F
:104B30003846FFF729FF30463C4E38493C4FFFF7D7
:104B400023FF306802F0F2FA02460B46404649461F
:104B500000F0D8FA706802F0E9FA02460B463846CF
:104B6000494600F0CFFAB068324E02F0DFFA024652
:104B70000B463046494600F0C5FA2B788DF80040C8
:104B80004246514602A8FFF7AAFADFF8D89003A8D8
:104B9000FFF74EFD40F2DC5000F016FC2B788DF84C
:104BA00000403A46494602A8FFF799FA03A8FFF7E2
:104BB0003FFD40F2DC5000F007FC2B781E4D8DF8D5
:104BC00000403246294602A8FFF789FA03A8FFF7FA
:104BD0002FFD40F2DC5000F0F7FB41465046FFF756
:104BE000D7FE39464846FFF7D3FE31462846FFF741
:104BF000CFFE05B0BDE8F08F81790D003CE30320C6
:104C0000D0E10320C8DE0320C8DD03201CE103201F
:104C1000C4DD0320ACDD0320B0DD0320E8DE03208B
:104C200084790D009C790D00A2790D0090E303209A
:104C3000E8DF0320F2DF0320BB790D00B8DD03209D
:104C4000BDDD0320FCDF03201CE003208A790D007A
:104C500090790D0096790D00AB790D00A8790D00C3
:104C600088E00320B3790D00164B2DE9F041164C76
:104C7000164F012600251E7000F040F84FF6FF7316
:104C800063812560A580A5712581304600F086F9F5
:104C900020460F4C0F493A4601F088FB4FF01008B0
:104CA000201D42462946206002F0ADFD02232675F4
:104CB000A4F80480E3803A4620460749BDE8F04165
:104CC00001F074BBC8DD03200CE10320A8DD032044
:104CD000D0DE0320CF400D00B7400D0008B5024BD9
:104CE0001B689B68019308BD6802030008B5024B6E
:104CF0001B68DB68019308BD6802030008B5024B1E
:104D00001B681B68019308BD2C02030008B5024B09
:104D10001B685B68019308BD2C02030008B5024BB9
:104D20001B689B68019308BD2C02030008B5024B69
:104D30001B68DB68019308BD2C02030008B5024B19
:104D40001B681B69019308BD2C02030008B5024BC8
:104D50001B681B6B019308BD2C02030008B5024BB6
:104D60001B68DB69019308BD3002030008B5024BE4
:104D70001B681B6A019308BD3002030008B5024B93
:104D80001B685B68019308BD1802030008B5024B5D
:104D90001B685B69019308BD1802030008B5024B4C
:104DA0001B689B68019308BD4802030008B5024BCD
:104DB0001B681B69019308BD4802030008B5024B3C
:104DC0001B685B69019308BD4802030008B5024BEC
:104DD0001B685B6C019308BD4802030008B5024BD9
:104DE0001B689B6C019308BD4802030008B5024B89
:104DF0001B685B69019308BD6402030008B5024BA0
:104E00001B681B68019308BD3C02030008B5024BF8
:104E10001B68DB68019308BD3C02030008B5024B28
:104E20001B681B69019308BD3C02030008B5024BD7
:104E30001B685B69019308BD3C02030008B5024B87
:104E40001B689B69019308BD3C02030008B5024B37
:104E50001B68DB69019308BD3C02030008B5024BE7
:104E60001B681B6A019308BD3C02030008B5024B96
:104E70001B689B6A019308BD3C02030008B5024B06
:104E80001B68DB68019308BD2802030008B5024BCC
:104E90001B689B69019308BD2802030008B5024BFB
:104EA0001B68DB69019308BD2802030008B5024BAB
:104EB0001B681B6A019308BD2802030008B5024B5A
:104EC0001B685B6A019308BD2802030008B5024B0A
:104ED0001B689B6A019308BD2802030008B5024BBA
:104EE0001B68DB6A019308BD2802030008B5024B6A
:104EF0001B681B6B019308BD2802030008B5024B19
:104F00001B685B6B019308BD2802030008B5024BC8
:104F10001B681B6C019308BD2802030008B5024BF7
:104F20001B681B6D019308BD2802030008B5024BE6
:104F30001B681B68019308BD4C02030008B5024BB7
:104F40001B685B68019308BD4C02030008B5024B67
:104F50001B681B69019308BD4C02030008B5024B96
:104F60001B685B69019308BD4C02030008B5024B46
:104F70001B689B69019308BD4C02030008B5024BF6
:104F80001B68DB69019308BD4C02030008B5024BA6
:104F90001B681B6A019308BD4C02030008B5024B55
:104FA0001B685B68019308BD2002030008B5024B33
:104FB0001B685B69019308BD2002030008B5024B22
:104FC0001B68DB6C019308BD2002030008B5024B8F
:104FD0001B685B6D019308BD2002030008B5034BFD
:104FE0001B68D3F88830019308BD0000200203003D
:104FF00008B5034B1B68D3F89430019308BD00003B
:105000002002030008B5024B1B685B68019308BDD2
:105010004002030008B5024B1B689B68019308BD62
:105020004002030008B5024B1B68DB68019308BD12
:105030004002030008B5024B1B681B69019308BDC1
:105040004002030008B5024B1B685B69019308BD71
:105050004002030008B5024B1B689B69019308BD21
:105060004002030008B5024B1B68DB69019308BDD1
:105070004002030008B5024B1B681B6A019308BD80
:105080004002030008B5024B1B681B6B019308BD6F
:105090004002030008B5024B1B685B6B019308BD1F
:1050A0004002030008B5024B1B681B68019308BD52
:1050B0004402030008B5024B1B685B69019308BDFD
:1050C0004402030008B5024B1B681B6A019308BD2C
:1050D0004402030008B5024B1B68DB6B019308BD5B
:1050E0004402030008B5024B1B681B68019308BD0E
:1050F0001C02030008B5024B1B685B68019308BDE6
:105100001C02030008B5024B1B68DB68019308BD55
:105110001C02030008B5024B1B685B6A019308BDC3
:105120001C02030008B5024B1B68DB6A019308BD33
:105130001C02030008B5024B1B681B6B019308BDE2
:105140001C02030008B5024B1B68DB6B019308BD12
:105150001C020300002211464068FFF78BBF0022AB
:1051600011464068FFF796BF00224068FFF78ABFEC
:10517000002281F001014068FFF774BF00231A4646
:1051800019464068FFF766BF00231A461946406873
:10519000FFF758BF002211464068FFF74BBF0022BF
:1051A00011464068FFF736BF002202214068FFF732
:1051B00039BF00231A464068FFF724BF024B032281
:1051C0005A60024A1A607047A8E30320CC790D00A8
:1051D00010B5044601700846FFF7C0FD0023636068
:1051E000204610BD0078FFF7C1BD000010B5094C86
:1051F00000204FF6FF732060A080A07120816381A2
:10520000FFF7CCFE2046044A0449BDE8104001F0F7
:10521000CDB800BFB0E30320A8DD0320CF400D00D0
:1052200010B50446006808B1FFF7D8FD204610BD50
:105230000B68036013B15A6801325A60704700006E
:1052400010B5064C002320462360FFF7BFFD204623
:10525000034A0449BDE8104001F0A8B8BCE30320AC
:10526000A8DD032021520D00F8B506460D468F1823
:105270000024BD420CD0336815F8011B9B683046F2
:105280009847002801DB0444F3E7002C08BF0446DC
:105290002046F8BD70B505460C46084649B102F0F7
:1052A000FEFA2B68024621462846DB68BDE87040BE
:1052B000184770BD08B5FFF7EDFF08BD03689B6890
:1052C000184738B50D210546FFF7F8FF0A210446B7
:1052D0002846FFF7F3FF204438BD38B50546FFF7F1
:1052E000D9FF04462846FFF7ECFF204438BD30B50F
:1052F0008BB00B4600218DF82410012A98BF0A229A
:105300000DF12304B3FBF2F505FB123303F0FF03A9
:10531000092B94BF30333733DBB2214604F801390F
:105320002B46002DEED1FFF7B5FF0BB030BD0CB40E
:105330002DE9F04387B000AF07F13804054654F873
:10534000049B3C600E4623464A461421381DFFF755
:10535000E1FE132805D8391D2846FFF79BFF0446B8
:1053600013E000F1080323F00703E846ADEB030D5B
:10537000411C23464A4668463C60FFF7CBFE69461F
:105380002846FFF787FF0446C5461EB12846FFF7AB
:1053900098FF044420461C37BD46BDE8F04302B0E8
:1053A00070470000014B024A1A607047C0E30320B7
:1053B0006B7A0D00024B1A68024B1A60704700BFEF
:1053C0003CDD0320C4E303200021FFF7EFBD10B54F
:1053D0008368044613B1032201469847204610BD56
:1053E00010B50446FFF7F3FF204610BD13B50B467A
:1053F000044603C88DE8030093E8030084E8030033
:105400009DE8030083E8030002B010BD0348044A8E
:1054100004490023836000F0C9BF00BFC8E3032034
:10542000A8DD0320E1530D0008B50C4B33B100F0AB
:105430001BFC03681B699847002809DC084B63B113
:1054400000F0E0FC03681B699847002803DC08BDF6
:10545000AFF30080F2E7AFF3008008BD000000006A
:105460000000000008B5FFF7DFFFFFF78FFC014BDE
:10547000186008BD30E703200248034A0349121AA6
:1054800002F0B6B900F4032004F40320407D0D00BF
:1054900007B5002300931A466FF07701FFF7A8FDC8
:1054A00003B05DF804FB000007B543880A2B08D061
:1054B000502B09D1094B1B683BB103B05DF804EBDD
:1054C0001847FFF7E5FF06E0002300931A466FF048
:1054D0007701FFF78DFD03B05DF804FBD8E30320EF
:1054E00038B5104C104D2368AB42104B0CBF012255
:1054F00000221A7002D0FFF7BFFF2560FFF73EFCC5
:10550000044602F089F90A4B13B12046AFF300803C
:1055100000210748FFF7DEFD00210648BDE83840BE
:10552000FFF75CBD00F403201E1C279ADCE3032078
:1055300000000000A9540D0070470020704710B50E
:105540001021044600F040FF204610BD08B508B108
:10555000FFF7F5FF08BD0022026010B54FF69C7200
:105560008280B1F9044084808A8002680C680460FB
:105570000A6010BD10B504460068FFF7BBFD204669
:1055800010BD38B5C468F4B12378022B03D104F1FF
:105590000C00FFF7EFFF656835B12846FFF717FFEE
:1055A0001021284600F010FFA56835B12846FFF706
:1055B0000EFF1021284600F007FF20461421BDE809
:1055C000384000F001BF38BD13B5044691E805002E
:1055D00000234B600B602060626001A80193009380
:1055E000FFF726F8204602B010BDF7B50C4602AD15
:1055F00054F8043B45F8083D06460F4601A82146ED
:10560000FFF716FE29463046FFF7DEFF01A8FFF739
:105610000FF82046FFF70CF83846082100F0D4FEBA
:10562000304603B0F0BD000038B5002304460360E7
:1056300010200D46FEF731FD28B101234360836041
:10564000024B0360C5602060204638BD047B0D001E
:10565000826810B50AB900F0CAFEC368BDE8104000
:10566000184708B5006800F11001FFF7F1FF08BD09
:10567000826810B50AB900F0BAFEC368BDE81040F0
:10568000184708B5006800F11001FFF7F1FF08BDE9
:1056900038B5002383608B6804460D462BB1022287
:1056A0009847EB68E360AB68A360204638BD000014
:1056B000F0B589B004686846FFF74DFF00238DF808
:1056C00008304FF00202D4E84F3F002B03D1C4E86A
:1056D000412F0029F7D102D08DF8083063E014F192
:1056E0000C0503D069462846FFF735FFBFF35F8FEF
:1056F00001236370002004F10803BFF35F8F53E8B8
:10570000006F43E80002002AF9D1BFF35F8F002E3B
:1057100049D0FFF753FC20B129463046FFF798FFE8
:105720003AE0314602A8FFF7B3FFE068B4F9105041
:1057300008B102F099F806901020ADF81C50FEF761
:10574000ACFC0546E8B1002787601820FEF7A5FCF1
:10575000044688B10146876002A8FFF747FE049B14
:10576000A268A360059B049206A9E268E36004F1C5
:1057700010000592FFF7EFFE0D4BEB600D4B2C6018
:10578000AB6006A8FFF7F6FE02A8FFF720FE002296
:1057900029460948FFF71AFC3046FFF718FE10218A
:1057A000304600F011FE6846FFF7E4FE09B0F0BD98
:1057B00063560D00D9580D00515E0D002DE9F04FD4
:1057C0008BB006460F46904699469DF850A0FFF7CD
:1057D00071FC07AD834630BB4FF62E73059005A9CB
:1057E0002846ADF81830FFF7B6FE1420FEF755FC3A
:1057F000044658B10223037001234370C0F804B07B
:10580000C0F808B029460C30FFF7A5FE3046214607
:1058100040F8044BFFF708FF2846FFF7ABFE05A84A
:10582000FFF7A8FE52E000240C2314206C60AC604B
:105830000793FEF732FC014618B1047044704460CF
:10584000846004A80391FFF7EFFE224B0893082021
:10585000FEF723FC044628B1039B40F8043B04A94F
:10586000FFF7E6FC00955FFA8AF34A464146384660
:105870000994FFF727FC20B9039B5B7803F0FF0234
:1058800083B1039B059304A906A8FFF7D1FC05A9E2
:105890003046FFF799FE06A8FEF7CAFE04A8FEF7F9
:1058A000C7FE13E04FF69C7305A903A80592ADF857
:1058B0001830FFF7FDFE05A8FFF75CFE05A8099963
:1058C000FFF793FE06A8FEF7B3FEDAE730460BB00B
:1058D000BDE8F08F495A0D00022AF8B5044606D0FB
:1058E000032A17D0012A22D10B6803601FE0182079
:1058F0000E68FEF7D2FB054650B13146FFF7C8FEF1
:105900003069B6F9147008B101F0AEFF2861AF82BA
:1059100025600CE0046854B104F11000FFF72AFE82
:105920002046FFF754FD1821204600F04DFD0020D1
:10593000F8BD38B5002383608B6804460D462BB153
:1059400002229847EB68E360AB68A360204638BD4D
:10595000022A70B5044606D0032A11D0012A18D1B4
:105960000B68036015E014200E68FEF796FB0546F1
:1059700020B13146FFF7DDFF337C2B74256008E052
:10598000046834B12046FFF722FD1421204600F0C0
:105990001BFD002070BD0000F0B5002387B00C4651
:1059A000BFF35F8F50E8006F40E80032002AF9D162
:1059B000BFF35F8F002E3FD01846FFF7FFFA074670
:1059C00020B121463046FFF753FE2EE0314601A8B4
:1059D000FFF7AFFF23788DF814301020FEF75DFB42
:1059E0000546D0B187601420FEF757FB044678B116
:1059F0008760014601A8FFF7F9FC039BA268A3603A
:105A0000049B0392E268E3609DF8143004922374CF
:105A10000A4BEB600A4B2C60AB6001A8FFF7D7FC88
:105A2000002229460748FFF7D1FA3046FFF7CFFC9E
:105A30001021304600F0C8FC07B0F0BD83560D00C1
:105A400051590D00515E0D0030B585B004460D462C
:105A500068461146FFF7C9FD7CB124B228460DB156
:105A600001F002FF029002A96846ADF80C40FFF772
:105A70001FFE02A8FFF77EFD1DE000988DF808408C
:105A80004FF00102D0E84F3FA34203D1C0E8412FBD
:105A90000029F7D102D08DF808300CE010F10C018C
:105AA0004FF0010318BF0373BFF35F8F043000F89A
:105AB000033CFFF771FF01A8FEF7BAFD05B030BD4A
:105AC000704710B51821044600F07EFC204610BD3A
:105AD000F0B5037D062B8DB00E4600F104074FF0A4
:105AE000000402D000F1080518E00CAD394605F8B5
:105AF000304D2F232A460A20FFF778F9284601F077
:105B0000CEFE33680246DB682946304698470FE0F0
:105B100024B12E213046FFF7D1FB044415F8011DB6
:105B20000A223046FFF7E3FBBD420444F0D1204691
:105B30000DB0F0BD10B5054B0446112240F8043BF2
:105B4000002101F060FE204610BD00BF207B0D004B
:105B50000346074A10B543F8042B01F1100251F82F
:105B6000044B43F8044B9142F9D10A781A7010BDE6
:105B7000207B0D0010B59DF8084044EA032343EA5A
:105B8000024242EA016104234160037510BD37B54A
:105B90000D788B784A78C97800912946FFF7EAFF9B
:105BA00003B030BD41747047704708B50021007CD8
:105BB000FFF7DCF930EA200028BF4FF0FF3008BDC6
:105BC00008B50121007CFFF7D1F930EA200028BF99
:105BD0004FF0FF3008BD08B5007CFFF7BFF920EAA1
:105BE000E07008BD08B5007CFFF7B0F920EAE0706E
:105BF00008BD007CFFF7CAB910B51421044600F0B7
:105C0000E3FB204610BD38B50446007C0D46FFF787
:105C1000A5F9002801DC607C28B12946207CFFF72B
:105C2000ADF920EAE07038BD10B50446002363608A
:105C30004FF47A73A360054B236001230846217457
:105C400063741146FFF772F9204610BD347B0D00D6
:105C50000022007CFFF772B910B51422044600211F
:105C600001F0D1FD204610BD30B50E4D87B001A822
:105C7000FFF7F2FF296811F0010410D12846FEF762
:105C800012FA60B101AA21460748FFF7CDFF284666
:105C9000FEF70EFA054A0649034800F087FB024862
:105CA00007B030BDE0E30320E4E30320A8DD0320D8
:105CB000A95B0D00002211464068FFF7BBB9002226
:105CC00011464068FFF7D6B9002211464068FFF739
:105CD000E1B900224068FFF7D5B9002281F0010147
:105CE0004068FFF7BFB900231A4619464068FFF71E
:105CF000B1B900231A4619464068FFF7A3B900223C
:105D000011464068FFF786B9002202214068FFF77C
:105D100089B900231A464068FFF774B938B5084CB2
:105D200028252A460021204601F06DFD4FF0FF3363
:105D30006360044B258004225A60034A1A6038BD10
:105D400000E40320F8E30320647B0D0070474174F6
:105D5000704708B5007CFFF789F820EAE07008BDBD
:105D600008B5007CFFF75AF820EAE07008BD08B5D6
:105D7000007CFFF763F830EA200028BF4FF0FF30C7
:105D800008BD08B5007CFFF751F830EA200028BFB5
:105D90004FF0FF3008BD007CFFF758B810B5142154
:105DA000044600F011FB204610BD70B5457C04464A
:105DB0000E4625B9007CFFF759F8002805DD31466D
:105DC000207CBDE87040FFF721B8284670BD000078
:105DD00010B5044608461146002262604FF47A72FC
:105DE000A260054A22600122207462741A46FFF7FD
:105DF00005F8204610BD00BF987B0D00007CFFF722
:105E00002DB8000038B50C4D296811F0010411D1EE
:105E10002846FEF748F968B1084A094B0948214667
:105E2000FFF7D6FF2846FEF743F9074A074905481A
:105E300000F0BCFA034838BDC0E40320C4E40320EA
:105E40003CE4032028E40320A8DD03204D5D0D0081
:105E500010B5836804460BB900F0C9FAC3689847C7
:105E6000A3681BB1032221462046984720461021F3
:105E7000BDE8104000F0A8BA7047F8B506461546D0
:105E80000C468F18BC4206D0336814F8011B9B687F
:105E900030469847F6E72846F8BD0022007CFFF719
:105EA00005B80021007CFFF709B80021007CFFF74E
:105EB0000DB80021007CFFF711B80021007CFFF72E
:105EC00015B810B51421044600F07EFA204610BD26
:105ED00010B50446002363604FF47A73A360044B4B
:105EE0002174084623601146FFF710F8204610BDC4
:105EF000C87B0D0000231A461946007CFEF7BEBF82
:105F000070B50C4686B0142506462A46002101A825
:105F100001F079FC23788DF8083063680393E36817
:105F200004930022237A307CADF8045001A9059334
:105F3000FEF7F4FF06B070BD1FB500338DF80010FA
:105F40004FF06401039118BF0123694601928DF857
:105F50000830FFF7D5FF05B05DF804FB0022007C98
:105F6000FEF794BFC9B2FFF7F9BF0022007CFEF72D
:105F700095BF0021007CFEF7C1BF0022114640689A
:105F8000FFF778B8002211464068FFF783B8002277
:105F90004068FFF777B8002281F001014068FFF701
:105FA00061B800231A4601214068FFF753B8002367
:105FB0001A4619464068FFF745B800221146406866
:105FC000FFF738B8002211464068FFF723B80022D7
:105FD00002214068FFF726B800231A464068FFF701
:105FE00011B838B5054688B104684CB1A3681BB137
:105FF00003222146204698471021204600F0E4F96C
:1060000028461421BDE8384000F0DEB938BD10B193
:1060100003685B681847704710B503680446BBB156
:106020005868FEF7BBFE78B923685A7C12B95868E5
:10603000FEF7BCFE23685868FEF7C0FE2068002308
:10604000236028B1FFF7CDFF206808B1FFF7C9FF33
:10605000204610BD38B50446D0F8C40108B1FEF79B
:1060600020F8D4F8C00108B1FEF7B8FED4F8BC514E
:1060700035B12846FFF7D0FF0421284600F0A4F9E7
:10608000206808B1FFF7C3FF204638BD10B5044BA8
:10609000044640F8083BFFF7DDFF204610BD00BF77
:1060A000F07B0D0038B50E4C0E4B2360002502230B
:1060B00004F5E4706360A560C4F8C451C4F8C85125
:1060C000FEF784FE084BC4F8CC5184F8D05123600D
:1060D0002046064A0649BDE8384000F067B900BFCF
:1060E00048E50320247C0D00F07B0D00A8DD032093
:1060F0008D600D0000231A464068FEF783BF002222
:1061000002214068FEF78EBF002211464068FEF76C
:1061100081BF002211464068FEF78CBF00231A465B
:1061200019464068FEF78EBF00231A46194640689C
:10613000FEF790BF002281F001014068FEF792BF98
:1061400000224068FEF79EBF002211464068FEF71D
:10615000A1BF002211464068FEF78CBF2DE9F04335
:10616000002495B016460D460746FFF7E3FC21468E
:1061700020220CA8009401F046FB40230C932146FA
:106180006B460CAA3046FEF7B1FD0446002844D108
:10619000024601216868FEF74DFF02218046224633
:1061A0006868FEF747FF009E81462146002E34D0E6
:1061B000002932D17368022B02D00A2B09D02AE0C1
:1061C000B8F1000F27D0716938460431FFF7DFFCC2
:1061D00020E0B9F1000F1ED07469112201A801F06E
:1061E00012FB06238DF8143001AD04F108031834B6
:1061F000186859682A4603C20833A3421546F7D1E6
:1062000001A906A807ADFFF7A3FC0FCD3C1D0FC4E5
:106210002B6823700121F669C8E70098FEF75EFD40
:10622000384615B0BDE8F083024B034A1A600022DD
:106230005A6070471CE70320247C0D0070B5184E8F
:10624000316811F0010504460AD13046FDF72BFFF5
:1062500030B129461348FEF7BBFF3046FDF728FF53
:106260001048FEF7BFFF28B1A4F10B03022B01D8A1
:10627000002070BD00F074F8FFF77BFE08B1012C20
:10628000F6D9FFF7BFFDFFF7B9FD18B1A4F1090377
:10629000012BEDD9232C8CBF0020012070BD00BF45
:1062A00024E7032028E70320232838B504460D46B9
:1062B0000AD8FF2908D0FFF7C1FF28B12946204698
:1062C000BDE83840FEF72ABD38BD38B504460D4656
:1062D000FEF72CFDFF2810D0062804D84D2323FA02
:1062E00000F0C30709D42046FFF7A8FF28B12946CC
:1062F0002046BDE83840FEF721BD38BD0D2810B559
:1063000004469CBF0E34A4B22046FFF797FF50B15D
:1063100003212046FEF7FAFC032804D12046BDE8FD
:106320001040FEF713BD002010BD000070B50446FC
:1063300014252A46094E002101F065FA2580202502
:106340003146A5602561284600F040F8314660607E
:10635000284600F03BF8E060204670BD507C0D0000
:1063600030B50E4D296811F0010487B013D12846CD
:10637000FDF799FE78B101A8FFF7D8FF01AA2146E1
:106380000748FFF7A5FD2846FDF792FE054A064996
:10639000034800F00BF8024807B030BD34E7032093
:1063A00038E70320A8DD0320795E0D000B46014687
:1063B000184601F00FBA0000024B1868BFF35F8F58
:1063C000704700BF4CE70320FDF769BE00F000B83E
:1063D00010B5002814BF044601242046FEF782FEB3
:1063E00020B9FFF7E9FF08B18047F6E710BD08B50F
:1063F000FEF798FE184B1A68D1075CBF01221A609D
:10640000164B1A68D2075CBF01221A60144B1A6837
:10641000D0075CBF01221A60124B1A68D1075CBF1B
:1064200001221A60104B1A68D2075CBF01221A6061
:106430000E4B1A68D0075CBF01221A600C4B1A6819
:10644000D1075CBF01221A600A4B1A68D2075CBFF1
:1064500001221A60704700BF6CE7032068E7032041
:1064600064E7032060E703205CE7032058E703208C
:1064700054E7032050E70320244B1A68D0075CBF81
:1064800001221A60224B1A68D1075CBF01221A60F0
:10649000204B1A68D2075CBF01221A601E4B1A6893
:1064A000D0075CBF01221A601C4B1A68D1075CBF81
:1064B00001221A601A4B1A68D2075CBF01221A60C7
:1064C000184B1A68D0075CBF01221A60164B1A6875
:1064D000D1075CBF01221A60144B1A68D2075CBF57
:1064E00001221A60124B1A68D0075CBF01221A60A1
:1064F000104B1A68D1075CBF01221A600E4B1A6854
:10650000D2075CBF01221A60704700BF9CE70320DE
:1065100098E7032094E7032090E703208CE703200B
:1065200088E7032084E7032080E703207CE703203B
:1065300078E7032074E7032070E70320244B1A68F0
:10654000D0075CBF01221A60224B1A68D1075CBFDA
:1065500001221A60204B1A68D2075CBF01221A6020
:106560001E4B1A68D0075CBF01221A601C4B1A68C8
:10657000D1075CBF01221A601A4B1A68D2075CBFB0
:1065800001221A60184B1A68D0075CBF01221A60FA
:10659000164B1A68D1075CBF01221A60144B1A68A7
:1065A000D2075CBF01221A60124B1A68D0075CBF89
:1065B00001221A60104B1A68D1075CBF01221A60D1
:1065C0000E4B1A68D2075CBF01221A60704700BFE9
:1065D000CCE70320C8E70320C4E70320C0E703207B
:1065E000BCE70320B8E70320B4E70320B0E70320AB
:1065F000ACE70320A8E70320A4E70320A0E70320DB
:10660000184B1A68D1075CBF01221A60164B1A6832
:10661000D2075CBF01221A60144B1A68D0075CBF16
:1066200001221A60124B1A68D1075CBF01221A605E
:10663000104B1A68D2075CBF01221A600E4B1A6811
:10664000D0075CBF01221A600C4B1A68D1075CBFEF
:1066500001221A600A4B1A68D2075CBF01221A6035
:10666000704700BFECE70320E8E70320E4E70320DE
:10667000E0E70320DCE70320D8E70320D4E703208A
:10668000D0E7032000F060B82DE9F0432DED028B38
:106690008BB055EC104B00F04DF9294BB0EE408A11
:1066A000F0EE608A93F90060731C12D022462B46EC
:1066B0002046294601F028F8074650B94FF0000857
:1066C0004FF000092046294642464B4600F0F4FFB1
:1066D00040B9B0EE480AF0EE680A0BB0BDEC028B90
:1066E000BDE8F083174B08970122CDE90445CDE9B9
:1066F00002458DE80C00B6B142464B46404649463D
:1067000000F092FE022ECDE906010ED1FEF71AFD31
:1067100021230360089B73B99DED060B0BB0BDEC04
:10672000028BBDE8F083CDE90689684600F098FB4E
:106730000028EFD1EAE7FEF705FD089B0360EBE7D1
:1067400040DD0320547C0D0051EC110B43422DE938
:10675000F047034321F00048754F48EAD373BB422A
:1067600055EC104B49D86342234325F0004A4AEACE
:10677000D373BB42A94640D801F1404303F58013CF
:1067800003438E4650D08E1706F0020654EA0A03E1
:1067900046EAD57639D050EA08033ED0B84555D000
:1067A000BA453AD0C8EB0A084FEA2858B8F13C0F6E
:1067B00040DC002970DB02460B462046294600F0EB
:1067C00033FE41EC100B00F043FB00F085F951EC77
:1067D000100B012E5AD0022E48D0002E42D03EA3DC
:1067E000D3E9002300F042FB3DA3D3E9002300F0EE
:1067F0003DFB41EC100BBDE8F08722462B4600F034
:1068000037FB41EC100BBDE8F087022E16D0032EAB
:106810000ED19FED350BBDE8F087B9F1000F11DB0C
:106820009FED330BBDE8F087BDE8F04700F054B9A9
:10683000BDE8F0872EA1D1E90001CAE79FED280B42
:10684000BDE8F0879FED2C0BBDE8F087C24529D04D
:10685000022EF3D0032EDCD0012E2DD09FED280B7D
:10686000BDE8F08741EC100BBDE8F0871AA3D3E92F
:10687000002300F0FBFA02460B4619A1D1E9000102
:1068800000F0F4FA41EC100BBDE8F08701F1004193
:1068900041EC100BBDE8F08718F13C0F8BDA0020BB
:1068A000002196E7022E13D0032E0DD0012E07D023
:1068B0009FED150BBDE8F0879FED150BBDE8F08748
:1068C0009FED150BBDE8F0879FED150BBDE8F08738
:1068D0009FED150BBDE8F087075C143326A6A13C9D
:1068E000182D4454FB210940182D4454FB2109C0A4
:1068F000182D4454FB21F93F182D4454FB21F9BFB6
:106900000000000000000000182D4454FB21E93F66
:106910000000000000000080182D4454FB21E9BF56
:10692000D221337F7CD902C0D221337F7CD902406F
:106930000000F07F2DE9F041654955EC104B0E4603
:106940002940B14200F09780002D2B4610EE102A0E
:1069500074DD2F157FD0A7F2FF37C3F31303F907B8
:1069600043F4801365D403EBD27100260B447F10EF
:106970005200B64616204FF400110EEB01049C4263
:106980004FEAD2754FEA420203DC1B1B04EB010EF7
:106990000E44013805EB43034FEA5101EDD1844623
:1069A00020244FF0004109E020D003EBD275013CD8
:1069B0004FEA51012B444FEA420220D09E4501EBA1
:1069C0000C05F1DA002D05EB010C09DBF0469542D0
:1069D000CEEB030300D9013B521B0844C646E4E753
:1069E000BCF1000FF2DB0EF10108F0E795421ED872
:1069F000002D05EB010C50DB98460023ECE7134318
:106A000004D0421C4DD000F001031844400871101E
:106A1000F30701F17F5101F5001148BF40F000403C
:106A200001EB0753024643EC102BBDE8F08173469F
:106A3000BBE75B0003EBD273520094E725F0004103
:106A4000214328D0ADBB2F46D30A153F5205002B5A
:106A5000FAD0DD0228D4002100E001465B00DC0210
:106A600001F10100F9D5C0F1200422FA04F4234316
:106A70007F1A82406FE710EE102A2B4610EE100AA4
:106A8000294600F0A7FB22462B4600F0F1F941EC25
:106A9000100BBDE8F081BDE8F081BCF1000FA2DA77
:106AA000AAE701362046B2E720244FF0FF3100204C
:106AB000DBE710EE102A2B462046294600F0D6F9D7
:106AC00002460B4600F0B0FC41EC100BBDE8F08133
:106AD0000000F07F000000002DE9F84F55EC104B4E
:106AE000D14B25F000469E42AB4610DDCF4B9E4277
:106AF00000F3B28000F0AD80BBF1000F40F3FD80E9
:106B0000ADA5D5E9004545EC104BBDE8F88FC84B65
:106B10009E4200F3C080A3F1DE739E4240F3A88042
:106B20004FF0FF3A22462B462046294600F052FB02
:106B300002460B468046894600F04CFBA0A3D3E9F1
:106B4000002306460F4600F045FB9FA3D3E9002330
:106B500000F08EF932463B4600F03CFB9CA3D3E9A3
:106B6000002300F085F932463B4600F033FB9AA340
:106B7000D3E9002300F07CF932463B4600F02AFBC3
:106B800097A3D3E9002300F073F932463B4600F0A7
:106B900021FB95A3D3E9002300F06AF942464B4656
:106BA00000F018FB92A3D3E90023804689463046C3
:106BB000394600F00FFB90A3D3E9002300F056F90B
:106BC00032463B4600F006FB8DA3D3E9002300F0DC
:106BD0004DF932463B4600F0FDFA8BA3D3E9002382
:106BE00000F044F932463B4600F0F4FA88A3D3E9BA
:106BF000002300F03BF932463B4600F0EBFABAF1D5
:106C0000FF3F02460B467CD04046494600F030F933
:106C100022462B4600F0DEFA864E874B4FEACA0A20
:106C200056449A44DAE9002300F020F922462B4624
:106C300000F01CF902460B46D6E9000100F016F9F7
:106C4000BBF1000F52DB04460D4645EC104BBDE88E
:106C5000F88F002C3FF450AF22462B4620462946A1
:106C600000F006F904460D4645EC104BBDE8F88FE0
:106C700069A3D3E9002310EE100A294600F0F8F8C2
:106C800000226E4B00F036FD00283FF449AF45EC82
:106C9000104BBDE8F88F00F0DBF8694B9E4255ECD5
:106CA000104B3FDCA3F550239E4268DC10EE102A07
:106CB00010EE100A2B46294600F0DAF800225F4B4E
:106CC00000F0D4F8002206460F464FF080432046DD
:106CD000294600F0CDF802460B463046394600F012
:106CE000A3FB4FF0000A04460D461BE7044601F1E2
:106CF000004545EC104BBDE8F88F49A5D5E90045A6
:106D0000B2E74046494600F0B3F822462B4600F071
:106D100061FA02460B462046294600F0A7F80446D1
:106D20000D46A1E7474B9E421DDC10EE100A0022E3
:106D3000454B294600F09AF8002206460F46424B82
:106D40002046294600F046FA00223C4B00F090F81D
:106D500002460B463046394600F066FB4FF0020A09
:106D600004460D46DEE62B4610EE102A0020374979
:106D700000F05AFB4FF0030A04460D46D2E610EE2F
:106D8000100A00222D4B294600F070F8002206461A
:106D90000F462A4B2046294600F06AF802460B4669
:106DA0003046394600F040FB4FF0010A04460D46DC
:106DB000B8E600BFAFF30080182D4454FB21F93F23
:106DC00011DA22E33AAD903FEB0D76244B7BA93FDD
:106DD000513DD0A0660DB13F6E204CC5CD45B73FAB
:106DE000FF8300922449C23F0D5555555555D53F57
:106DF0002F6C6A2C44B4A2BF9AFDDE522DDEAD3F4B
:106E00006D9A74AFF2B0B33F711623FEC671BC3FEA
:106E1000C4EB98999999C93F9C7500883CE4377EEA
:106E2000182D4454FB21F9BFFFFF0F440000F07FF1
:106E3000FFFFDB3F807C0D00607C0D000000F03F19
:106E4000FFFFF23FFF7F03400000F83F0000F0BF6C
:106E500053EC102B23F0004343EC102B704700BF82
:106E60000020704781F0004102E000BF83F0004342
:106E700030B54FEA41044FEA430594EA050F08BFD5
:106E800090EA020F1FBF54EA000C55EA020C7FEA99
:106E9000645C7FEA655C00F0E2804FEA5454D4EB16
:106EA0005555B8BF6D420CDD2C4480EA020281EAE0
:106EB000030382EA000083EA010180EA020281EA18
:106EC0000303362D88BF30BD11F0004F4FEA01316A
:106ED0004FF4801C4CEA113102D0404261EB410179
:106EE00013F0004F4FEA03334CEA133302D05242FF
:106EF00063EB430394EA050F00F0A780A4F10104BB
:106F0000D5F1200E0DDB02FA0EFC22FA05F28018F4
:106F100041F1000103FA0EF2801843FA05F35941DA
:106F20000EE0A5F120050EF1200E012A03FA0EFC59
:106F300028BF4CF0020C43FA05F3C01851EBE37183
:106F400001F0004507D54FF0000EDCF1000C7EEBA0
:106F500000006EEB0101B1F5801F1BD3B1F5001FDE
:106F60000CD349085FEA30004FEA3C0C04F10104FD
:106F70004FEA445212F5800F80F09A80BCF1004F26
:106F800008BF5FEA500C50F1000041EB045141EAA8
:106F9000050130BD5FEA4C0C404141EB010111F4A9
:106FA000801FA4F10104E9D191F0000F04BF014654
:106FB0000020B1FA81F308BF2033A3F10B03B3F132
:106FC00020020CDA0C3208DD02F1140CC2F10C02C2
:106FD00001FA0CF021FA02F10CE002F11402D8BF20
:106FE000C2F1200C01FA02F120FA0CFCDCBF41EAEC
:106FF0000C019040E41AA2BF01EB0451294330BDBB
:107000006FEA04041F3C1CDA0C340EDC04F1140497
:10701000C4F1200220FA04F001FA02F340EA03006E
:1070200021FA04F345EA030130BDC4F10C04C4F1B4
:10703000200220FA02F001FA04F340EA0300294694
:1070400030BD21FA04F0294630BD94F0000F83F4DE
:10705000801306BF81F480110134013D4EE77FEAC1
:10706000645C18BF7FEA655C29D094EA050F08BF0D
:1070700090EA020F05D054EA000C04BF19461046EE
:1070800030BD91EA030F1EBF0021002030BD5FEA32
:10709000545C05D14000494128BF41F0004130BD5A
:1070A00014F580043CBF01F5801130BD01F00045AE
:1070B00045F0FE4141F470014FF0000030BD7FEA21
:1070C000645C1ABF194610467FEA655C1CBF0B461C
:1070D000024650EA013406BF52EA033591EA030F33
:1070E00041F4002130BD00BF90F0000F04BF00212B
:1070F000704730B54FF4806404F132044FF000055E
:107100004FF0000150E700BF90F0000F04BF0021D6
:10711000704730B54FF4806404F1320410F000453C
:1071200048BF40424FF000013EE700BF42004FEA37
:10713000E2014FEA31014FEA02701FBF12F07F43B4
:1071400093F07F4F81F06051704792F0000F14BFB1
:1071500093F07F4F704730B54FF4607401F00045F5
:1071600021F0004120E700BF50EA010208BF70474C
:1071700030B54FF000050AE050EA010208BF704741
:1071800030B511F0004502D5404261EB41014FF4AA
:10719000806404F132045FEA915C3FF4DCAE4FF0AE
:1071A00003025FEADC0C18BF03325FEADC0C18BF95
:1071B000033202EBDC02C2F1200300FA03FC20FAE6
:1071C00002F001FA03FE40EA0E0021FA02F1144433
:1071D000C1E600BF70B54FF0FF0C4CF4E06C1CEA48
:1071E00011541DBF1CEA135594EA0C0F95EA0C0FBD
:1071F00000F0DEF82C4481EA030621EA4C5123EA30
:107200004C5350EA013518BF52EA033541F480115E
:1072100043F4801338D0A0FB02CE4FF00005E1FB11
:1072200002E506F00042E0FB03E54FF00006E1FB5B
:1072300003569CF0000F18BF4EF0010EA4F1FF049E
:10724000B6F5007F64F5407404D25FEA4E0E6D41DE
:1072500046EB060642EAC62141EA55514FEAC520EF
:1072600040EA5E504FEACE2EB4F1FD0C88BFBCF56B
:10727000E06F1ED8BEF1004F08BF5FEA500E50F11C
:10728000000041EB045170BD06F0004646EA0101E2
:1072900040EA020081EA0301B4EB5C04C2BFD4EB14
:1072A0000C0541EA045170BD41F480114FF0000E0D
:1072B000013C00F3AB8014F1360FDEBF002001F07B
:1072C000004170BDC4F10004203C35DA0C341BDCF5
:1072D00004F11404C4F1200500FA05F320FA04F0C7
:1072E00001FA05F240EA020001F0004221F00041FB
:1072F00010EBD37021FA04F642EB06015EEA430E6E
:1073000008BF20EAD37070BDC4F10C04C4F120059D
:1073100000FA04F320FA05F001FA04F240EA020050
:1073200001F0004110EBD37041F100015EEA430E21
:1073300008BF20EAD37070BDC4F1200500FA05F241
:107340004EEA020E20FA04F301FA05F243EA0203C0
:1073500021FA04F001F0004121FA04F220EA0200CF
:1073600000EBD3705EEA430E08BF20EAD37070BD15
:1073700094F0000F0FD101F00046400041EB0101F5
:1073800011F4801F08BF013CF7D041EA060195F0D7
:10739000000F18BF704703F00046520043EB030391
:1073A00013F4801F08BF013DF7D043EA060370477E
:1073B00094EA0C0F0CEA135518BF95EA0C0F0CD089
:1073C00050EA410618BF52EA4306D1D181EA0301CF
:1073D00001F000414FF0000070BD50EA410606BFC9
:1073E0001046194652EA430619D094EA0C0F02D10E
:1073F00050EA013613D195EA0C0F05D152EA033653
:107400001CBF104619460AD181EA030101F0004170
:1074100041F0FE4141F470014FF0000070BD41F0B9
:10742000FE4141F4780170BD70B54FF0FF0C4CF493
:10743000E06C1CEA11541DBF1CEA135594EA0C0FB2
:1074400095EA0C0F00F0A7F8A4EB050481EA030EFF
:1074500052EA03354FEA013100F088804FEA0333E6
:107460004FF0805545EA131343EA12634FEA0222B4
:1074700045EA111545EA10654FEA00260EF0004175
:107480009D4208BF964244F1FD0404F5407402D2C7
:107490005B084FEA3202B61A65EB03055B084FEA58
:1074A00032024FF480104FF4002CB6EB020E75EB55
:1074B000030E22BFB61A754640EA0C005B084FEA7D
:1074C0003202B6EB020E75EB030E22BFB61A7546FA
:1074D00040EA5C005B084FEA3202B6EB020E75EB45
:1074E000030E22BFB61A754640EA9C005B084FEABD
:1074F0003202B6EB020E75EB030E22BFB61A7546CA
:1075000040EADC0055EA060E18D04FEA051545EAB8
:1075100016754FEA06164FEAC30343EA52734FEA61
:10752000C2025FEA1C1CC0D111F4801F0BD141EADA
:1075300000014FF000004FF0004CB6E711F4801F3F
:1075400004BF01430020B4F1FD0C88BFBCF5E06F1F
:107550003FF6AFAEB5EB030C04BFB6EB020C5FEA2F
:10756000500C50F1000041EB045170BD0EF0004E84
:107570004EEA113114EB5C04C2BFD4EB0C0541EAB6
:10758000045170BD41F480114FF0000E013C90E6B3
:1075900045EA060E8DE60CEA135594EA0C0F08BF77
:1075A00095EA0C0F3FF43BAF94EA0C0F0AD150EA76
:1075B00001347FF434AF95EA0C0F7FF425AF104609
:1075C00019462CE795EA0C0F06D152EA03353FF431
:1075D000FDAE1046194622E750EA410618BF52EAAE
:1075E00043067FF4C5AE50EA41047FF40DAF52EA82
:1075F00043057FF4EBAE12E74FF0FF3C06E000BF1F
:107600004FF0010C02E000BF4FF0010C4DF804CD2B
:107610004FEA410C7FEA6C5C4FEA430C18BF7FEAEB
:107620006C5C1BD001B050EA410C0CBF52EA430C19
:1076300091EA030F02BF90EA020F0020704710F199
:10764000000F91EA030F58BF994208BF90422CBF28
:10765000D8176FEAE37040F0010070474FEA410C21
:107660007FEA6C5C02D150EA013C07D14FEA430C3F
:107670007FEA6C5CD6D152EA033CD3D05DF8040BB0
:10768000704700BF8446104662468C4619466346E2
:1076900000E000BF01B5FFF7B7FF002848BF10F1B9
:1076A000000F01BD4DF808EDFFF7F4FF0CBF0120FE
:1076B00000205DF808FB00BF4DF808EDFFF7EAFF7A
:1076C00034BF012000205DF808FB00BF4DF808ED35
:1076D000FFF7E0FF94BF012000205DF808FB00BF2A
:1076E0004DF808EDFFF7CEFF94BF012000205DF8B4
:1076F00008FB00BF4DF808EDFFF7C4FF34BF0120C1
:1077000000205DF808FB00BF4FEA410C7FEA6C5C8B
:1077100002D150EA013C0AD14FEA430C7FEA6C5C8B
:1077200002D152EA033C02D14FF0000070474FF003
:10773000010070474FEA4102B2F1E04324BFB3F5C4
:10774000001CDCF1FE5C0DD901F0004C4FEAC002D8
:107750004CEA5070B2F1004F40EB830008BF20F0BC
:107760000100704711F0804F21D113F13872BCBF76
:1077700001F00040704741F480114FEA5252C2F1CB
:107780001802C2F1200C10FA0CF320FA02F018BF14
:1077900040F001004FEAC1234FEAD32303FA0CFC67
:1077A00040EA0C0023FA02F34FEA4303CCE77FEAF6
:1077B000625307D150EA01331EBF4FF0FE4040F440
:1077C0004000704701F0004040F0FE4040F40000EF
:1077D000704700BF10B5054C13462CB10A46014650
:1077E0000220AFF3008010BD204610BD0000000055
:1077F00010B5431E0A44914204D011F8014B03F81E
:10780000014FF8E710BD02440346934202D003F84B
:10781000011BFAE77047000038B5124B1C68A36BD8
:107820000546D3B91820FDF75DFC43F20E33A06383
:1078300003804AF6CD33438041F2342383804EF2F5
:107840006D63C3804DF6EC630381052343810B23F5
:10785000838101220023C0E90423A36B00221D6160
:107860005A6138BDA4DD0320024B0146186800F0C0
:1078700003B800BFA4DD032070B5064608460C46D9
:1078800000F00DF8451C29463046FDF753FC06462E
:1078900018B12A462146FFF7ABFF304670BD0346BC
:1078A00013F8012B002AFBD1181A01387047000089
:1078B00021400D005D400D0089400D008D400D0000
:1078C00000000000EA5F5940B9CA5F3E48C791BF57
:1078D00014A4063C283D923E773A243E5472616ED1
:1078E000736D697373696F6E20626567696E2E2EA2
:1078F0002E0077726974696E67202D2025642073CD
:107900007562416464726573730077726974696E3D
:1079100067202D2025642064617461005472616EBB
:10792000736D697373696F6E2073756363657373C9
:1079300066756C21005472616E736D697373696F43
:107940006E206661696C65642E0041732057697210
:10795000652E656E645472616E736D697373696FC1
:107960006E2072657475726E732061206E6F6E2D5D
:107970007A65726F2076616C756520692E652E2C94
:107980002025640073674C69310073674C693200CD
:1079900073674C6F310073675269310073675269C6
:1079A00032007367526F3100256600616E676C6547
:1079B000315800616E676C65315900616E676C65A6
:1079C000315A00000000000000000000B3510D001B
:1079D000A9510D009F510D0095510D0089510D00C9
:1079E0007D510D0071510D0069510D005F510D0069
:1079F00055510D005D610D00626175640053657243
:107A000069616C0053657269616C310074797065ED
:107A100000706172616D00636D6400696400686E7E
:107A200064007374726D0066696C74006C766C002F
:107A300061646448616E646C65720072656D6F7636
:107A40006548616E646C657200656E756D48616E47
:107A5000646C657273004A534F4E53747265616D66
:107A60004C6F6748616E646C6572006170700025D0
:107A70003031307520005D20002C200028293A206C
:107A800000205B00636F6465203D20002569006471
:107A9000657461696C73203D20000D0A006C6E00F6
:107AA000666E00636F64650064657461696C006E86
:107AB0006F6E6500747261636500696E666F007752
:107AC00061726E006572726F720070616E69630040
:107AD000616C6C00252B3033643A253032750025FB
:107AE000592D256D2D25645425483A254D3A2553A9
:107AF000257A0061736374696D6500000000000001
:107B00000000000039550D003F550D0083550D0054
:107B10004D550D003B550D00000000000000000019
:107B2000D15A0D00C15A0D00C35A0D0000000000CB
:107B300000000000A95B0D00F95B0D00075C0D0063
:107B400069520D00E55B0D00AB5B0D00C15B0D00E4
:107B5000F35B0D00D75B0D00A55B0D00000000007E
:107B600000000000135D0D00095D0D00FF5C0D00BD
:107B7000B55C0D00F35C0D00E75C0D00DB5C0D00F7
:107B8000D35C0D00C95C0D00BF5C0D005D610D0094
:107B900000000000000000004D5D0D009D5D0D0027
:107BA000AB5D0D0069520D00615D0D00835D0D0040
:107BB0006F5D0D00975D0D004F5D0D00535D0D0075
:107BC0000000000000000000795E0D00C35E0D00A3
:107BD0009B5E0D007B5E0D00A35E0D00AB5E0D0095
:107BE000B35E0D00BB5E0D00000000000000000051
:107BF000D95F0D00CF5F0D00C55F0D00BB5F0D00AD
:107C0000AF5F0D00A35F0D00975F0D008F5F0D004C
:107C1000855F0D007B5F0D005D610D0000000000C1
:107C200000000000F5600D00FF600D0009610D000F
:107C300013610D001D610D0029610D0035610D00FE
:107C400041610D0049610D0053610D005D610D0042
:107C5000000000007371727400000000000000005A
:107C6000E2652F227F2B7A3C075C143326A6813CE9
:107C7000BDCBF07A8807703C075C143326A6913C94
:107C80004FBB610567ACDD3F182D4454FB21E93F34
:107C90009BF681D20B73EF3F182D4454FB21F93F23
:107CA00000000000000000000000000000000000D4
:107CB00000000000000000000000000000000000C4
:107CC00000000000000000000000000000000000B4
:107CD00000000000000000000000000000000000A4
:107CE0000000000000000000000000000000000094
:107CF0000000000000000000000000000000000084
:107D000043000000694C0D00BD510D00ED510D0008
:107D100041520D00A5530D00B5530D000D540D003B
:107D20001D5D0D00A5600D0029620D00F5630D00BD
:107D300079640D003D650D0001660D000000000036
:047D4000000000003F
:107D4400F37A0D000100000000000000A07C0D008B
:107D5400C07C0D00E07C0D0000000000000000006D
:107D64000000000000000000007D0D000000000085
:107D740000000000000000000000000000000000FF
:107D840000000000000000000000000000000000EF
:107D940000000000000000000000000000000000DF
:0C7DA400000000000000000044DD03208F
:107DB000FFFFFFFF00000102030405060708090A90
:107DC0000B0C0D0E0F101112131415161718191A8B
:087DD0001B1C1D1E1F202800D2
:047DD8007856341293
:04000003D0004020C9
:00000001FF
